{
  "contractName": "Sample",
  "abi": [
    {
      "anonymous": false,
      "inputs": [
        {
          "indexed": false,
          "internalType": "string",
          "name": "_str",
          "type": "string"
        }
      ],
      "name": "test",
      "type": "event"
    },
    {
      "inputs": [],
      "name": "number",
      "outputs": [
        {
          "internalType": "uint256",
          "name": "",
          "type": "uint256"
        }
      ],
      "stateMutability": "view",
      "type": "function",
      "constant": true
    },
    {
      "inputs": [],
      "name": "str",
      "outputs": [
        {
          "internalType": "string",
          "name": "",
          "type": "string"
        }
      ],
      "stateMutability": "view",
      "type": "function",
      "constant": true
    },
    {
      "inputs": [],
      "name": "without_parameters",
      "outputs": [
        {
          "internalType": "string",
          "name": "str1",
          "type": "string"
        },
        {
          "internalType": "uint256",
          "name": "num1",
          "type": "uint256"
        }
      ],
      "stateMutability": "view",
      "type": "function",
      "constant": true
    },
    {
      "inputs": [
        {
          "internalType": "uint256",
          "name": "_n",
          "type": "uint256"
        }
      ],
      "name": "update",
      "outputs": [],
      "stateMutability": "nonpayable",
      "type": "function"
    },
    {
      "inputs": [
        {
          "internalType": "string",
          "name": "_str",
          "type": "string"
        },
        {
          "internalType": "bytes",
          "name": "signature",
          "type": "bytes"
        }
      ],
      "name": "update_string",
      "outputs": [],
      "stateMutability": "nonpayable",
      "type": "function"
    },
    {
      "inputs": [],
      "name": "getNonce",
      "outputs": [
        {
          "internalType": "uint256",
          "name": "nonce",
          "type": "uint256"
        }
      ],
      "stateMutability": "view",
      "type": "function",
      "constant": true
    },
    {
      "inputs": [
        {
          "internalType": "bytes",
          "name": "signature",
          "type": "bytes"
        }
      ],
      "name": "register_gateway",
      "outputs": [],
      "stateMutability": "nonpayable",
      "type": "function"
    },
    {
      "inputs": [
        {
          "internalType": "string",
          "name": "_devId",
          "type": "string"
        },
        {
          "internalType": "string",
          "name": "_pub",
          "type": "string"
        }
      ],
      "name": "register_device",
      "outputs": [],
      "stateMutability": "nonpayable",
      "type": "function"
    },
    {
      "inputs": [
        {
          "internalType": "string",
          "name": "_devId",
          "type": "string"
        }
      ],
      "name": "check_device",
      "outputs": [
        {
          "internalType": "bool",
          "name": "status",
          "type": "bool"
        }
      ],
      "stateMutability": "view",
      "type": "function",
      "constant": true
    },
    {
      "inputs": [
        {
          "internalType": "string",
          "name": "_devId",
          "type": "string"
        }
      ],
      "name": "get_device_key",
      "outputs": [
        {
          "internalType": "string",
          "name": "",
          "type": "string"
        }
      ],
      "stateMutability": "view",
      "type": "function",
      "constant": true
    },
    {
      "inputs": [
        {
          "internalType": "string",
          "name": "_devId",
          "type": "string"
        },
        {
          "internalType": "uint256",
          "name": "_nonce",
          "type": "uint256"
        }
      ],
      "name": "add_device_nonce",
      "outputs": [],
      "stateMutability": "nonpayable",
      "type": "function"
    },
    {
      "inputs": [
        {
          "internalType": "string",
          "name": "_devId",
          "type": "string"
        }
      ],
      "name": "get_device_nonce",
      "outputs": [
        {
          "internalType": "uint256",
          "name": "nonce",
          "type": "uint256"
        }
      ],
      "stateMutability": "view",
      "type": "function",
      "constant": true
    },
    {
      "inputs": [
        {
          "internalType": "bytes",
          "name": "signature",
          "type": "bytes"
        },
        {
          "internalType": "bytes32",
          "name": "messageHash",
          "type": "bytes32"
        }
      ],
      "name": "verify",
      "outputs": [
        {
          "internalType": "bool",
          "name": "",
          "type": "bool"
        }
      ],
      "stateMutability": "view",
      "type": "function",
      "constant": true
    },
    {
      "inputs": [
        {
          "internalType": "string",
          "name": "_message",
          "type": "string"
        },
        {
          "internalType": "uint256",
          "name": "_nonce",
          "type": "uint256"
        }
      ],
      "name": "getMessageHash",
      "outputs": [
        {
          "internalType": "bytes32",
          "name": "",
          "type": "bytes32"
        }
      ],
      "stateMutability": "pure",
      "type": "function",
      "constant": true
    },
    {
      "inputs": [
        {
          "internalType": "bytes32",
          "name": "_messageHash",
          "type": "bytes32"
        }
      ],
      "name": "getEthSignedMessageHash",
      "outputs": [
        {
          "internalType": "bytes32",
          "name": "",
          "type": "bytes32"
        }
      ],
      "stateMutability": "pure",
      "type": "function",
      "constant": true
    },
    {
      "inputs": [
        {
          "internalType": "bytes32",
          "name": "_ethSignedMessageHash",
          "type": "bytes32"
        },
        {
          "internalType": "bytes",
          "name": "_signature",
          "type": "bytes"
        }
      ],
      "name": "recoverSigner",
      "outputs": [
        {
          "internalType": "address",
          "name": "",
          "type": "address"
        }
      ],
      "stateMutability": "pure",
      "type": "function",
      "constant": true
    },
    {
      "inputs": [
        {
          "internalType": "bytes",
          "name": "sig",
          "type": "bytes"
        }
      ],
      "name": "splitSignature",
      "outputs": [
        {
          "internalType": "bytes32",
          "name": "r",
          "type": "bytes32"
        },
        {
          "internalType": "bytes32",
          "name": "s",
          "type": "bytes32"
        },
        {
          "internalType": "uint8",
          "name": "v",
          "type": "uint8"
        }
      ],
      "stateMutability": "pure",
      "type": "function",
      "constant": true
    }
  ],
  "bytecode": "0x6080604052600a6000556040518060400160405280600581526020017f48656c6c6f00000000000000000000000000000000000000000000000000000081525060019080519060200190620000569291906200006b565b503480156200006457600080fd5b5062000180565b82805462000079906200014a565b90600052602060002090601f0160209004810192826200009d5760008555620000e9565b82601f10620000b857805160ff1916838001178555620000e9565b82800160010185558215620000e9579182015b82811115620000e8578251825591602001919060010190620000cb565b5b509050620000f89190620000fc565b5090565b5b8082111562000117576000816000905550600101620000fd565b5090565b7f4e487b7100000000000000000000000000000000000000000000000000000000600052602260045260246000fd5b600060028204905060018216806200016357607f821691505b602082108114156200017a57620001796200011b565b5b50919050565b6126a680620001906000396000f3fe608060405234801561001057600080fd5b506004361061010b5760003560e01c806393c7a68b116100a2578063c15bae8411610071578063c15bae84146102cb578063d087d288146102e9578063d4aa691614610307578063e594d0f114610337578063fa540801146103675761010b565b806393c7a68b1461021d57806397aba7f91461024d578063a0c265f81461027d578063a7bb5803146102995761010b565b80636b406341116100de5780636b406341146101975780637737879f146101c757806382ab890a146101e35780638381f58a146101ff5761010b565b80634ea36e32146101105780634f1d52c11461012f578063531b81b31461014b5780635b72ae0514610167575b600080fd5b610118610397565b604051610126929190611554565b60405180910390f35b610149600480360381019061014491906116cd565b610434565b005b61016560048036038101906101609190611771565b610679565b005b610181600480360381019061017c91906117cd565b610972565b60405161018e9190611816565b60405180910390f35b6101b160048036038101906101ac9190611908565b610b6b565b6040516101be919061197f565b60405180910390f35b6101e160048036038101906101dc919061199a565b610bba565b005b6101fd60048036038101906101f89190611a12565b610e12565b005b610207610e1c565b6040516102149190611816565b60405180910390f35b610237600480360381019061023291906117cd565b610e22565b604051610244919061197f565b60405180910390f35b61026760048036038101906102629190611a3f565b610e57565b6040516102749190611adc565b60405180910390f35b61029760048036038101906102929190611af7565b610ec6565b005b6102b360048036038101906102ae9190611af7565b6110b9565b6040516102c293929190611b6b565b60405180910390f35b6102d3611121565b6040516102e09190611ba2565b60405180910390f35b6102f16111af565b6040516102fe9190611816565b60405180910390f35b610321600480360381019061031c9190611771565b611259565b60405161032e9190611bc4565b60405180910390f35b610351600480360381019061034c91906117cd565b61128c565b60405161035e9190611ba2565b60405180910390f35b610381600480360381019061037c9190611bdf565b61133f565b60405161038e9190611bc4565b60405180910390f35b6060600060016000548180546103ac90611c3b565b80601f01602080910402602001604051908101604052809291908181526020018280546103d890611c3b565b80156104255780601f106103fa57610100808354040283529160200191610425565b820191906000526020600020905b81548152906001019060200180831161040857829003601f168201915b50505050509150915091509091565b600115156004836040516104489190611ca9565b908152602001604051809103902060009054906101000a900460ff16151514156104a6577ff9fbd55454309325ccadd998a641a1dfe7cd888eea26c0ae93b95992a13ac14460405161049990611d0c565b60405180910390a1610675565b60016004836040516104b89190611ca9565b908152602001604051809103902060006101000a81548160ff0219169083151502179055506104e56113c8565b81816000018190525033816020019073ffffffffffffffffffffffffffffffffffffffff16908173ffffffffffffffffffffffffffffffffffffffff168152505061271044424360405160200161053e93929190611d4d565b6040516020818303038152906040528051906020012060001c6105619190611db9565b8160400181815250508060058460405161057b9190611ca9565b908152602001604051809103902060008201518160000190805190602001906105a59291906113ff565b5060208201518160010160006101000a81548173ffffffffffffffffffffffffffffffffffffffff021916908373ffffffffffffffffffffffffffffffffffffffff16021790555060408201518160020155905050600660003373ffffffffffffffffffffffffffffffffffffffff1673ffffffffffffffffffffffffffffffffffffffff168152602001908152602001600020839080600181540180825580915050600190039060005260206000200160009091909190915090805190602001906106729291906113ff565b50505b5050565b60011515600260003373ffffffffffffffffffffffffffffffffffffffff1673ffffffffffffffffffffffffffffffffffffffff16815260200190815260200160002060009054906101000a900460ff16151514610741577ff9fbd55454309325ccadd998a641a1dfe7cd888eea26c0ae93b95992a13ac1446040516106fe90611e36565b60405180910390a16040517f08c379a000000000000000000000000000000000000000000000000000000000815260040161073890611e36565b60405180910390fd5b6000805b600660003373ffffffffffffffffffffffffffffffffffffffff1673ffffffffffffffffffffffffffffffffffffffff1681526020019081526020016000208054905081101561089c5761087c84600660003373ffffffffffffffffffffffffffffffffffffffff1673ffffffffffffffffffffffffffffffffffffffff16815260200190815260200160002083815481106107e4576107e3611e56565b5b9060005260206000200180546107f990611c3b565b80601f016020809104026020016040519081016040528092919081815260200182805461082590611c3b565b80156108725780601f1061084757610100808354040283529160200191610872565b820191906000526020600020905b81548152906001019060200180831161085557829003601f168201915b505050505061136f565b915081156108895761089c565b808061089490611eb4565b915050610745565b5080610912577ff9fbd55454309325ccadd998a641a1dfe7cd888eea26c0ae93b95992a13ac1446040516108cf90611f6f565b60405180910390a16040517f08c379a000000000000000000000000000000000000000000000000000000000815260040161090990612001565b60405180910390fd5b816005846040516109239190611ca9565b9081526020016040518091039020600201819055507ff9fbd55454309325ccadd998a641a1dfe7cd888eea26c0ae93b95992a13ac1446040516109659061206d565b60405180910390a1505050565b600060011515600260003373ffffffffffffffffffffffffffffffffffffffff1673ffffffffffffffffffffffffffffffffffffffff16815260200190815260200160002060009054906101000a900460ff161515146109d55760009050610b66565b6000805b600660003373ffffffffffffffffffffffffffffffffffffffff1673ffffffffffffffffffffffffffffffffffffffff16815260200190815260200160002080549050811015610b3057610b1084600660003373ffffffffffffffffffffffffffffffffffffffff1673ffffffffffffffffffffffffffffffffffffffff1681526020019081526020016000208381548110610a7857610a77611e56565b5b906000526020600020018054610a8d90611c3b565b80601f0160208091040260200160405190810160405280929190818152602001828054610ab990611c3b565b8015610b065780601f10610adb57610100808354040283529160200191610b06565b820191906000526020600020905b815481529060010190602001808311610ae957829003601f168201915b505050505061136f565b91508115610b1d57610b30565b8080610b2890611eb4565b9150506109d9565b5080610b40576000915050610b66565b600583604051610b509190611ca9565b9081526020016040518091039020600201549150505b919050565b600080610b778361133f565b90503373ffffffffffffffffffffffffffffffffffffffff16610b9a8286610e57565b73ffffffffffffffffffffffffffffffffffffffff161491505092915050565b600082600360003373ffffffffffffffffffffffffffffffffffffffff1673ffffffffffffffffffffffffffffffffffffffff16815260200190815260200160002054604051602001610c0e92919061208d565b6040516020818303038152906040528051906020012090506000610c328383610b6b565b9050600115158115151415610d9e57604051602001610c5090612101565b604051602081830303815290604052805190602001206001604051602001610c7891906121aa565b604051602081830303815290604052805190602001201415610ccf576040517f08c379a0000000000000000000000000000000000000000000000000000000008152600401610cc69061220d565b60405180910390fd5b8360019080519060200190610ce59291906113ff565b50612710444243604051602001610cfe93929190611d4d565b6040516020818303038152906040528051906020012060001c610d219190611db9565b600360003373ffffffffffffffffffffffffffffffffffffffff1673ffffffffffffffffffffffffffffffffffffffff168152602001908152602001600020819055507ff9fbd55454309325ccadd998a641a1dfe7cd888eea26c0ae93b95992a13ac144604051610d919061229f565b60405180910390a1610dd4565b7ff9fbd55454309325ccadd998a641a1dfe7cd888eea26c0ae93b95992a13ac144604051610dcb90612331565b60405180910390a15b7ff9fbd55454309325ccadd998a641a1dfe7cd888eea26c0ae93b95992a13ac1446001604051610e0491906123d1565b60405180910390a150505050565b8060008190555050565b60005481565b6000600482604051610e349190611ca9565b908152602001604051809103902060009054906101000a900460ff169050919050565b600080600080610e66856110b9565b92509250925060018682858560405160008152602001604052604051610e8f94939291906123f3565b6020604051602081039080840390855afa158015610eb1573d6000803e3d6000fd5b50505060206040510351935050505092915050565b60011515600260003373ffffffffffffffffffffffffffffffffffffffff1673ffffffffffffffffffffffffffffffffffffffff16815260200190815260200160002060009054906101000a900460ff1615151415610f59577ff9fbd55454309325ccadd998a641a1dfe7cd888eea26c0ae93b95992a13ac144604051610f4c90612484565b60405180910390a16110b6565b6000604051602001610f6a906124f0565b6040516020818303038152906040528051906020012090506000610f8e8383610b6b565b9050600115158115151415611078576001600260003373ffffffffffffffffffffffffffffffffffffffff1673ffffffffffffffffffffffffffffffffffffffff16815260200190815260200160002060006101000a81548160ff02191690831515021790555061271044424360405160200161100d93929190611d4d565b6040516020818303038152906040528051906020012060001c6110309190611db9565b600360003373ffffffffffffffffffffffffffffffffffffffff1673ffffffffffffffffffffffffffffffffffffffff168152602001908152602001600020819055506110b3565b6040517f08c379a00000000000000000000000000000000000000000000000000000000081526004016110aa90612551565b60405180910390fd5b50505b50565b60008060006041845114611102576040517f08c379a00000000000000000000000000000000000000000000000000000000081526004016110f9906125bd565b60405180910390fd5b6020840151925060408401519150606084015160001a90509193909250565b6001805461112e90611c3b565b80601f016020809104026020016040519081016040528092919081815260200182805461115a90611c3b565b80156111a75780601f1061117c576101008083540402835291602001916111a7565b820191906000526020600020905b81548152906001019060200180831161118a57829003601f168201915b505050505081565b600060011515600260003373ffffffffffffffffffffffffffffffffffffffff1673ffffffffffffffffffffffffffffffffffffffff16815260200190815260200160002060009054906101000a900460ff161515141561125157600360003373ffffffffffffffffffffffffffffffffffffffff1673ffffffffffffffffffffffffffffffffffffffff168152602001908152602001600020549050611256565b600090505b90565b6000828260405160200161126e92919061208d565b60405160208183030381529060405280519060200120905092915050565b606060058260405161129e9190611ca9565b908152602001604051809103902060000180546112ba90611c3b565b80601f01602080910402602001604051908101604052809291908181526020018280546112e690611c3b565b80156113335780601f1061130857610100808354040283529160200191611333565b820191906000526020600020905b81548152906001019060200180831161131657829003601f168201915b50505050509050919050565b600081604051602001611352919061264a565b604051602081830303815290604052805190602001209050919050565b6000816040516020016113829190611ca9565b60405160208183030381529060405280519060200120836040516020016113a99190611ca9565b6040516020818303038152906040528051906020012014905092915050565b604051806060016040528060608152602001600073ffffffffffffffffffffffffffffffffffffffff168152602001600081525090565b82805461140b90611c3b565b90600052602060002090601f01602090048101928261142d5760008555611474565b82601f1061144657805160ff1916838001178555611474565b82800160010185558215611474579182015b82811115611473578251825591602001919060010190611458565b5b5090506114819190611485565b5090565b5b8082111561149e576000816000905550600101611486565b5090565b600081519050919050565b600082825260208201905092915050565b60005b838110156114dc5780820151818401526020810190506114c1565b838111156114eb576000848401525b50505050565b6000601f19601f8301169050919050565b600061150d826114a2565b61151781856114ad565b93506115278185602086016114be565b611530816114f1565b840191505092915050565b6000819050919050565b61154e8161153b565b82525050565b6000604082019050818103600083015261156e8185611502565b905061157d6020830184611545565b9392505050565b6000604051905090565b600080fd5b600080fd5b600080fd5b600080fd5b7f4e487b7100000000000000000000000000000000000000000000000000000000600052604160045260246000fd5b6115da826114f1565b810181811067ffffffffffffffff821117156115f9576115f86115a2565b5b80604052505050565b600061160c611584565b905061161882826115d1565b919050565b600067ffffffffffffffff821115611638576116376115a2565b5b611641826114f1565b9050602081019050919050565b82818337600083830152505050565b600061167061166b8461161d565b611602565b90508281526020810184848401111561168c5761168b61159d565b5b61169784828561164e565b509392505050565b600082601f8301126116b4576116b3611598565b5b81356116c484826020860161165d565b91505092915050565b600080604083850312156116e4576116e361158e565b5b600083013567ffffffffffffffff81111561170257611701611593565b5b61170e8582860161169f565b925050602083013567ffffffffffffffff81111561172f5761172e611593565b5b61173b8582860161169f565b9150509250929050565b61174e8161153b565b811461175957600080fd5b50565b60008135905061176b81611745565b92915050565b600080604083850312156117885761178761158e565b5b600083013567ffffffffffffffff8111156117a6576117a5611593565b5b6117b28582860161169f565b92505060206117c38582860161175c565b9150509250929050565b6000602082840312156117e3576117e261158e565b5b600082013567ffffffffffffffff81111561180157611800611593565b5b61180d8482850161169f565b91505092915050565b600060208201905061182b6000830184611545565b92915050565b600067ffffffffffffffff82111561184c5761184b6115a2565b5b611855826114f1565b9050602081019050919050565b600061187561187084611831565b611602565b9050828152602081018484840111156118915761189061159d565b5b61189c84828561164e565b509392505050565b600082601f8301126118b9576118b8611598565b5b81356118c9848260208601611862565b91505092915050565b6000819050919050565b6118e5816118d2565b81146118f057600080fd5b50565b600081359050611902816118dc565b92915050565b6000806040838503121561191f5761191e61158e565b5b600083013567ffffffffffffffff81111561193d5761193c611593565b5b611949858286016118a4565b925050602061195a858286016118f3565b9150509250929050565b60008115159050919050565b61197981611964565b82525050565b60006020820190506119946000830184611970565b92915050565b600080604083850312156119b1576119b061158e565b5b600083013567ffffffffffffffff8111156119cf576119ce611593565b5b6119db8582860161169f565b925050602083013567ffffffffffffffff8111156119fc576119fb611593565b5b611a08858286016118a4565b9150509250929050565b600060208284031215611a2857611a2761158e565b5b6000611a368482850161175c565b91505092915050565b60008060408385031215611a5657611a5561158e565b5b6000611a64858286016118f3565b925050602083013567ffffffffffffffff811115611a8557611a84611593565b5b611a91858286016118a4565b9150509250929050565b600073ffffffffffffffffffffffffffffffffffffffff82169050919050565b6000611ac682611a9b565b9050919050565b611ad681611abb565b82525050565b6000602082019050611af16000830184611acd565b92915050565b600060208284031215611b0d57611b0c61158e565b5b600082013567ffffffffffffffff811115611b2b57611b2a611593565b5b611b37848285016118a4565b91505092915050565b611b49816118d2565b82525050565b600060ff82169050919050565b611b6581611b4f565b82525050565b6000606082019050611b806000830186611b40565b611b8d6020830185611b40565b611b9a6040830184611b5c565b949350505050565b60006020820190508181036000830152611bbc8184611502565b905092915050565b6000602082019050611bd96000830184611b40565b92915050565b600060208284031215611bf557611bf461158e565b5b6000611c03848285016118f3565b91505092915050565b7f4e487b7100000000000000000000000000000000000000000000000000000000600052602260045260246000fd5b60006002820490506001821680611c5357607f821691505b60208210811415611c6757611c66611c0c565b5b50919050565b600081905092915050565b6000611c83826114a2565b611c8d8185611c6d565b9350611c9d8185602086016114be565b80840191505092915050565b6000611cb58284611c78565b915081905092915050565b7f44657669636520616c726561647920726567697374657265642e2e2e00000000600082015250565b6000611cf6601c836114ad565b9150611d0182611cc0565b602082019050919050565b60006020820190508181036000830152611d2581611ce9565b9050919050565b6000819050919050565b611d47611d428261153b565b611d2c565b82525050565b6000611d598286611d36565b602082019150611d698285611d36565b602082019150611d798284611d36565b602082019150819050949350505050565b7f4e487b7100000000000000000000000000000000000000000000000000000000600052601260045260246000fd5b6000611dc48261153b565b9150611dcf8361153b565b925082611ddf57611dde611d8a565b5b828206905092915050565b7f47617465776179206e6f7420726567697374657265642e2e2e00000000000000600082015250565b6000611e206019836114ad565b9150611e2b82611dea565b602082019050919050565b60006020820190508181036000830152611e4f81611e13565b9050919050565b7f4e487b7100000000000000000000000000000000000000000000000000000000600052603260045260246000fd5b7f4e487b7100000000000000000000000000000000000000000000000000000000600052601160045260246000fd5b6000611ebf8261153b565b91507fffffffffffffffffffffffffffffffffffffffffffffffffffffffffffffffff821415611ef257611ef1611e85565b5b600182019050919050565b7f446576696365206e6f74206173736f636961746564207769746820746869732060008201527f676174657761792e2e2e2e000000000000000000000000000000000000000000602082015250565b6000611f59602b836114ad565b9150611f6482611efd565b604082019050919050565b60006020820190508181036000830152611f8881611f4c565b9050919050565b7f446576696365206e6f74206173736f636961746564207769746820746869732060008201527f676174657761792e2e2e00000000000000000000000000000000000000000000602082015250565b6000611feb602a836114ad565b9150611ff682611f8f565b604082019050919050565b6000602082019050818103600083015261201a81611fde565b9050919050565b7f4e6f6e6365207375636365737366756c6c7920757064617465642e2e2e000000600082015250565b6000612057601d836114ad565b915061206282612021565b602082019050919050565b600060208201905081810360008301526120868161204a565b9050919050565b60006120998285611c78565b91506120a58284611d36565b6020820191508190509392505050565b7f796f000000000000000000000000000000000000000000000000000000000000600082015250565b60006120eb600283611c6d565b91506120f6826120b5565b600282019050919050565b600061210c826120de565b9150819050919050565b60008190508160005260206000209050919050565b6000815461213881611c3b565b6121428186611c6d565b9450600182166000811461215d576001811461216e576121a1565b60ff198316865281860193506121a1565b61217785612116565b60005b838110156121995781548189015260018201915060208101905061217a565b838801955050505b50505092915050565b60006121b6828461212b565b915081905092915050565b7f596179792c206572726f72206f63757272656400000000000000000000000000600082015250565b60006121f76013836114ad565b9150612202826121c1565b602082019050919050565b60006020820190508181036000830152612226816121ea565b9050919050565b7f566572696669636174696f6e2073756363657373202d20537472696e6720757060008201527f6461746564000000000000000000000000000000000000000000000000000000602082015250565b60006122896025836114ad565b91506122948261222d565b604082019050919050565b600060208201905081810360008301526122b88161227c565b9050919050565b7f566572696669636174696f6e206661696c6564202d20537472696e67206e6f7460008201527f2075706461746564000000000000000000000000000000000000000000000000602082015250565b600061231b6028836114ad565b9150612326826122bf565b604082019050919050565b6000602082019050818103600083015261234a8161230e565b9050919050565b6000815461235e81611c3b565b61236881866114ad565b945060018216600081146123835760018114612395576123c8565b60ff19831686526020860193506123c8565b61239e85612116565b60005b838110156123c0578154818901526001820191506020810190506123a1565b808801955050505b50505092915050565b600060208201905081810360008301526123eb8184612351565b905092915050565b60006080820190506124086000830187611b40565b6124156020830186611b5c565b6124226040830185611b40565b61242f6060830184611b40565b95945050505050565b7f416c726561647920726567697374657265642e2e2e0000000000000000000000600082015250565b600061246e6015836114ad565b915061247982612438565b602082019050919050565b6000602082019050818103600083015261249d81612461565b9050919050565b7f5265676973746572000000000000000000000000000000000000000000000000600082015250565b60006124da600883611c6d565b91506124e5826124a4565b600882019050919050565b60006124fb826124cd565b9150819050919050565b7f526567697374726174696f6e206661696c65642e2e2e00000000000000000000600082015250565b600061253b6016836114ad565b915061254682612505565b602082019050919050565b6000602082019050818103600083015261256a8161252e565b9050919050565b7f696e76616c6964207369676e6174757265206c656e6774680000000000000000600082015250565b60006125a76018836114ad565b91506125b282612571565b602082019050919050565b600060208201905081810360008301526125d68161259a565b9050919050565b7f19457468657265756d205369676e6564204d6573736167653a0a333200000000600082015250565b6000612613601c83611c6d565b915061261e826125dd565b601c82019050919050565b6000819050919050565b61264461263f826118d2565b612629565b82525050565b600061265582612606565b91506126618284612633565b6020820191508190509291505056fea2646970667358221220c67ec4736c83551ea6753ed0134c0c3f833d7dea51cd95c152cbaca11398b62a64736f6c634300080a0033",
  "immutableReferences": {},
  "source": "// SPDX-License-Identifier: .\r\npragma solidity ^0.8.10;\r\n\r\ncontract Sample {\r\n    ///Blockchain state variables.\r\n\r\n    /* 'number' and 'str' are test variables */\r\n    uint public number = 10;\r\n    string public str = \"Hello\";\r\n\r\n    // 'reg' is mapping which stores whether a gateway has registered or not.\r\n    mapping(address => bool) reg;\r\n    // 'nonces' is a mapping which stores nonces for each registered gateway and changes with transaction.\r\n    mapping(address => uint) nonces;\r\n    //This mapping stores whether the dev has been registered or not.\r\n    mapping(string => bool) dev_reg;\r\n\r\n    //This structure contains the device information.\r\n    struct Device {\r\n        string pubKey;\r\n        address gate;\r\n        uint nonce;\r\n    }\r\n\r\n    //Maps from the device id to device information which is contained in 'Device' struct.\r\n    mapping(string => Device) dev_info;\r\n    mapping(address => string[]) gate_dev;\r\n    \r\n    //Test event to listen to in the script.\r\n    event test(string _str);  \r\n\r\n    //Utility function\r\n    function str_cmp(string memory _a, string memory _b) internal pure returns(bool fl){\r\n        return keccak256(abi.encodePacked(_a)) == keccak256(abi.encodePacked(_b));\r\n    }      \r\n\r\n    /*The below 3 functions are test functions.*/\r\n\r\n\r\n    //Multiple value return.\r\n    function without_parameters() public view returns (string memory str1, uint num1) {\r\n            return (str, number);\r\n    }\r\n\r\n    //Directly update the number by 'n'.\r\n    function update(uint _n) public {\r\n            number = _n;            \r\n    } \r\n\r\n    //Test transaction to check working with signature.\r\n    function update_string(string memory _str, bytes memory signature) public {\r\n        \r\n        bytes32 messageHash = keccak256(abi.encodePacked(_str, nonces[msg.sender]));\r\n        bool status = verify(signature, messageHash);\r\n        if(status == true)\r\n        {\r\n            if(keccak256(abi.encodePacked(str)) == keccak256(abi.encodePacked(\"yo\")))\r\n            revert(\"Yayy, error ocurred\");\r\n            str = _str;\r\n            nonces[msg.sender] = uint(keccak256(abi.encodePacked(block.difficulty, block.timestamp, block.number)))%10000;\r\n            emit test(\"Verification success - String updated\");\r\n        }\r\n        else\r\n            emit test(\"Verification failed - String not updated\");\r\n\r\n        emit test(str);\r\n    }       \r\n    \r\n    //Function to retrieve nonce.\r\n    function getNonce() public view returns(uint nonce) {\r\n        if(reg[msg.sender] == true)\r\n            return nonces[msg.sender];\r\n        else\r\n            return 0;\r\n    }\r\n\r\n    function register_gateway(bytes memory signature) public {\r\n        \r\n        if(reg[msg.sender] == true)\r\n            emit test(\"Already registered...\");\r\n        else{\r\n            bytes32 messageHash = keccak256(abi.encodePacked('Register'));\r\n            bool status = verify(signature, messageHash);\r\n            if(status == true)\r\n            {\r\n                //That means the signature has been verified.\r\n                reg[msg.sender] = true;\r\n                nonces[msg.sender] = uint(keccak256(abi.encodePacked(block.difficulty, block.timestamp, block.number)))%10000;\r\n            }        \r\n            else\r\n            {\r\n                revert(\"Registration failed...\");\r\n            }\r\n        }\r\n    }\r\n\r\n    function register_device(string memory _devId, string memory _pub) public {\r\n        \r\n        if(dev_reg[_devId] == true)\r\n         emit test(\"Device already registered...\");\r\n        else{                        \r\n            //Since the status has been verified, things to do are:\r\n            //1. Mark the device as registered.\r\n            dev_reg[_devId] = true;\r\n            //2. Create a new struct with the information.\r\n            Device memory dev;\r\n            dev.pubKey = _pub;\r\n            dev.gate = msg.sender;\r\n            dev.nonce = uint(keccak256(abi.encodePacked(block.difficulty, block.timestamp, block.number)))%10000;\r\n            //3. Map the device id to the created struct.\r\n            dev_info[_devId] = dev;\r\n\r\n            //4. Also add the device id to the list of devices under the associated gatewyay.  \r\n            gate_dev[msg.sender].push(_devId);                                  \r\n        }\r\n    }\r\n\r\n    //Function to check whether device has been registered or not.\r\n    function check_device(string memory _devId) public view returns(bool status){                \r\n        return dev_reg[_devId];\r\n    }\r\n\r\n    function get_device_key(string memory _devId) public view returns(string memory){                \r\n        return dev_info[_devId].pubKey;\r\n    }\r\n\r\n\r\n    //The gateway adds the\r\n    function add_device_nonce(string memory _devId, uint _nonce) public {\r\n        //Check whether the gateway is registered.\r\n        //Also check whether the device is under this gateway.\r\n        if(reg[msg.sender] != true)\r\n        {\r\n            emit test(\"Gateway not registered...\");\r\n            revert(\"Gateway not registered...\");\r\n        }\r\n        \r\n        bool fl = false;\r\n        for(uint i=0;i<gate_dev[msg.sender].length;i++)\r\n        {\r\n            fl = str_cmp(_devId, gate_dev[msg.sender][i]);\r\n            if(fl)\r\n                break;\r\n        }\r\n\r\n        if(!fl)\r\n        {\r\n            emit test(\"Device not associated with this gateway....\");\r\n            revert(\"Device not associated with this gateway...\");\r\n        }    \r\n        \r\n        //Add a nonce for the device here.\r\n        dev_info[_devId].nonce = _nonce;   \r\n        emit test(\"Nonce successfully updated...\");\r\n    }\r\n\r\n    function get_device_nonce(string memory _devId) public view returns(uint nonce){\r\n        //Check whether the gateway is registered.\r\n        //Also check whether the device is under this gateway.\r\n        if(reg[msg.sender] != true)                   \r\n            return 0;                    \r\n        \r\n        bool fl = false;\r\n        for(uint i=0;i<gate_dev[msg.sender].length;i++)\r\n        {\r\n            fl = str_cmp(_devId, gate_dev[msg.sender][i]);\r\n            if(fl)\r\n                break;\r\n        }\r\n\r\n        if(!fl)                    \r\n            return 0;           \r\n        \r\n        //Return nonce for the device here.\r\n        return dev_info[_devId].nonce;               \r\n    }\r\n    \r\n\r\n\r\n\r\n\r\n    function verify(\r\n        bytes memory signature,\r\n        bytes32 messageHash        \r\n    ) public view returns (bool) {        \r\n        bytes32 ethSignedMessageHash = getEthSignedMessageHash(messageHash);\r\n\r\n        return recoverSigner(ethSignedMessageHash, signature) == msg.sender;\r\n    }\r\n\r\n    function getMessageHash(        \r\n        string memory _message ,\r\n        uint _nonce       \r\n    ) public pure returns (bytes32) {\r\n        return keccak256(abi.encodePacked(_message, _nonce));\r\n    }\r\n\r\n    function getEthSignedMessageHash(bytes32 _messageHash)\r\n        public\r\n        pure\r\n        returns (bytes32)\r\n    {\r\n        /*\r\n        Signature is produced by signing a keccak256 hash with the following format:\r\n        \"\\x19Ethereum Signed Message\\n\" + len(msg) + msg\r\n        */\r\n        return\r\n            keccak256(\r\n                abi.encodePacked(\"\\x19Ethereum Signed Message:\\n32\", _messageHash)\r\n            );\r\n    }\r\n\r\n    function recoverSigner(bytes32 _ethSignedMessageHash, bytes memory _signature)\r\n        public\r\n        pure\r\n        returns (address)\r\n    {\r\n        (bytes32 r, bytes32 s, uint8 v) = splitSignature(_signature);\r\n\r\n        return ecrecover(_ethSignedMessageHash, v, r, s);\r\n    }\r\n\r\n    function splitSignature(bytes memory sig)\r\n        public\r\n        pure\r\n        returns (\r\n            bytes32 r,\r\n            bytes32 s,\r\n            uint8 v\r\n        )\r\n    {\r\n        require(sig.length == 65, \"invalid signature length\");\r\n\r\n        assembly {\r\n            /*\r\n            First 32 bytes stores the length of the signature\r\n\r\n            add(sig, 32) = pointer of sig + 32\r\n            effectively, skips first 32 bytes of signature\r\n\r\n            mload(p) loads next 32 bytes starting at the memory address p into memory\r\n            */\r\n\r\n            // first 32 bytes, after the length prefix\r\n            r := mload(add(sig, 32))\r\n            // second 32 bytes\r\n            s := mload(add(sig, 64))\r\n            // final byte (first byte of the next 32 bytes)\r\n            v := byte(0, mload(add(sig, 96)))\r\n        }\r\n\r\n        // implicitly return (r, s, v)\r\n    }\r\n}",
  "sourcePath": "D:\\Semester 4-1\\Final year project\\fyp\\contracts\\Sample.sol",
  "compiler": {
    "name": "solc",
    "version": "0.8.10+commit.fc410830.Emscripten.clang"
  },
  "schemaVersion": "3.4.4",
  "updatedAt": "2022-03-03T14:51:03.427Z",
  "networkType": "ethereum",
  "devdoc": {
    "kind": "dev",
    "methods": {},
    "version": 1
  },
  "userdoc": {
    "kind": "user",
    "methods": {
      "number()": {
        "notice": "Blockchain state variables."
      }
    },
    "version": 1
  }
}