{
  "contractName": "Sample",
  "abi": [
    {
      "anonymous": false,
      "inputs": [
        {
          "indexed": false,
          "internalType": "string",
          "name": "_str",
          "type": "string"
        }
      ],
      "name": "test",
      "type": "event"
    },
    {
      "inputs": [],
      "name": "number",
      "outputs": [
        {
          "internalType": "uint256",
          "name": "",
          "type": "uint256"
        }
      ],
      "stateMutability": "view",
      "type": "function",
      "constant": true
    },
    {
      "inputs": [],
      "name": "str",
      "outputs": [
        {
          "internalType": "string",
          "name": "",
          "type": "string"
        }
      ],
      "stateMutability": "view",
      "type": "function",
      "constant": true
    },
    {
      "inputs": [],
      "name": "without_parameters",
      "outputs": [
        {
          "internalType": "string",
          "name": "str1",
          "type": "string"
        },
        {
          "internalType": "uint256",
          "name": "num1",
          "type": "uint256"
        }
      ],
      "stateMutability": "view",
      "type": "function",
      "constant": true
    },
    {
      "inputs": [
        {
          "internalType": "uint256",
          "name": "_n",
          "type": "uint256"
        }
      ],
      "name": "update",
      "outputs": [],
      "stateMutability": "nonpayable",
      "type": "function"
    },
    {
      "inputs": [
        {
          "internalType": "string",
          "name": "_str",
          "type": "string"
        },
        {
          "internalType": "bytes",
          "name": "signature",
          "type": "bytes"
        }
      ],
      "name": "update_string",
      "outputs": [],
      "stateMutability": "nonpayable",
      "type": "function"
    },
    {
      "inputs": [],
      "name": "getNonce",
      "outputs": [
        {
          "internalType": "uint256",
          "name": "nonce",
          "type": "uint256"
        }
      ],
      "stateMutability": "view",
      "type": "function",
      "constant": true
    },
    {
      "inputs": [
        {
          "internalType": "bytes",
          "name": "signature",
          "type": "bytes"
        }
      ],
      "name": "register_gateway",
      "outputs": [],
      "stateMutability": "nonpayable",
      "type": "function"
    },
    {
      "inputs": [
        {
          "internalType": "string",
          "name": "_devId",
          "type": "string"
        },
        {
          "internalType": "string",
          "name": "_pub",
          "type": "string"
        },
        {
          "internalType": "string",
          "name": "_TS",
          "type": "string"
        }
      ],
      "name": "register_device",
      "outputs": [],
      "stateMutability": "nonpayable",
      "type": "function"
    },
    {
      "inputs": [
        {
          "internalType": "string",
          "name": "_devId",
          "type": "string"
        }
      ],
      "name": "check_device",
      "outputs": [
        {
          "internalType": "string",
          "name": "",
          "type": "string"
        }
      ],
      "stateMutability": "view",
      "type": "function",
      "constant": true
    },
    {
      "inputs": [
        {
          "internalType": "string",
          "name": "_devId",
          "type": "string"
        },
        {
          "internalType": "string",
          "name": "_TS",
          "type": "string"
        }
      ],
      "name": "update_timestamp",
      "outputs": [],
      "stateMutability": "nonpayable",
      "type": "function"
    },
    {
      "inputs": [
        {
          "internalType": "string",
          "name": "_devId",
          "type": "string"
        }
      ],
      "name": "get_device_key",
      "outputs": [
        {
          "internalType": "string",
          "name": "",
          "type": "string"
        }
      ],
      "stateMutability": "view",
      "type": "function",
      "constant": true
    },
    {
      "inputs": [
        {
          "internalType": "string",
          "name": "_devId",
          "type": "string"
        },
        {
          "internalType": "uint256",
          "name": "_nonce",
          "type": "uint256"
        }
      ],
      "name": "add_device_nonce",
      "outputs": [],
      "stateMutability": "nonpayable",
      "type": "function"
    },
    {
      "inputs": [
        {
          "internalType": "string",
          "name": "_devId",
          "type": "string"
        }
      ],
      "name": "get_device_nonce",
      "outputs": [
        {
          "internalType": "uint256",
          "name": "nonce",
          "type": "uint256"
        }
      ],
      "stateMutability": "view",
      "type": "function",
      "constant": true
    },
    {
      "inputs": [
        {
          "internalType": "bytes",
          "name": "signature",
          "type": "bytes"
        },
        {
          "internalType": "bytes32",
          "name": "messageHash",
          "type": "bytes32"
        }
      ],
      "name": "verify",
      "outputs": [
        {
          "internalType": "bool",
          "name": "",
          "type": "bool"
        }
      ],
      "stateMutability": "view",
      "type": "function",
      "constant": true
    },
    {
      "inputs": [
        {
          "internalType": "string",
          "name": "_message",
          "type": "string"
        },
        {
          "internalType": "uint256",
          "name": "_nonce",
          "type": "uint256"
        }
      ],
      "name": "getMessageHash",
      "outputs": [
        {
          "internalType": "bytes32",
          "name": "",
          "type": "bytes32"
        }
      ],
      "stateMutability": "pure",
      "type": "function",
      "constant": true
    },
    {
      "inputs": [
        {
          "internalType": "bytes32",
          "name": "_messageHash",
          "type": "bytes32"
        }
      ],
      "name": "getEthSignedMessageHash",
      "outputs": [
        {
          "internalType": "bytes32",
          "name": "",
          "type": "bytes32"
        }
      ],
      "stateMutability": "pure",
      "type": "function",
      "constant": true
    },
    {
      "inputs": [
        {
          "internalType": "bytes32",
          "name": "_ethSignedMessageHash",
          "type": "bytes32"
        },
        {
          "internalType": "bytes",
          "name": "_signature",
          "type": "bytes"
        }
      ],
      "name": "recoverSigner",
      "outputs": [
        {
          "internalType": "address",
          "name": "",
          "type": "address"
        }
      ],
      "stateMutability": "pure",
      "type": "function",
      "constant": true
    },
    {
      "inputs": [
        {
          "internalType": "bytes",
          "name": "sig",
          "type": "bytes"
        }
      ],
      "name": "splitSignature",
      "outputs": [
        {
          "internalType": "bytes32",
          "name": "r",
          "type": "bytes32"
        },
        {
          "internalType": "bytes32",
          "name": "s",
          "type": "bytes32"
        },
        {
          "internalType": "uint8",
          "name": "v",
          "type": "uint8"
        }
      ],
      "stateMutability": "pure",
      "type": "function",
      "constant": true
    }
  ],
  "bytecode": "0x6080604052600a6000556040518060400160405280600581526020017f48656c6c6f00000000000000000000000000000000000000000000000000000081525060019080519060200190620000569291906200006b565b503480156200006457600080fd5b5062000180565b82805462000079906200014a565b90600052602060002090601f0160209004810192826200009d5760008555620000e9565b82601f10620000b857805160ff1916838001178555620000e9565b82800160010185558215620000e9579182015b82811115620000e8578251825591602001919060010190620000cb565b5b509050620000f89190620000fc565b5090565b5b8082111562000117576000816000905550600101620000fd565b5090565b7f4e487b7100000000000000000000000000000000000000000000000000000000600052602260045260246000fd5b600060028204905060018216806200016357607f821691505b602082108114156200017a57620001796200011b565b5b50919050565b612a7880620001906000396000f3fe608060405234801561001057600080fd5b50600436106101165760003560e01c8063a0c265f8116100a2578063d087d28811610071578063d087d288146102f4578063d38fe63614610312578063d4aa69161461032e578063e594d0f11461035e578063fa5408011461038e57610116565b8063a0c265f81461026c578063a6bf902814610288578063a7bb5803146102a4578063c15bae84146102d657610116565b80637737879f116100e95780637737879f146101b657806382ab890a146101d25780638381f58a146101ee57806393c7a68b1461020c57806397aba7f91461023c57610116565b80634ea36e321461011b578063531b81b31461013a5780635b72ae05146101565780636b40634114610186575b600080fd5b6101236103be565b6040516101319291906117a7565b60405180910390f35b610154600480360381019061014f919061194c565b61045b565b005b610170600480360381019061016b91906119a8565b610754565b60405161017d91906119f1565b60405180910390f35b6101a0600480360381019061019b9190611ae3565b61094d565b6040516101ad9190611b5a565b60405180910390f35b6101d060048036038101906101cb9190611b75565b61099c565b005b6101ec60048036038101906101e79190611bed565b610bf4565b005b6101f6610bfe565b60405161020391906119f1565b60405180910390f35b610226600480360381019061022191906119a8565b610c04565b6040516102339190611c1a565b60405180910390f35b61025660048036038101906102519190611c3c565b610d00565b6040516102639190611cd9565b60405180910390f35b61028660048036038101906102819190611cf4565b610d6f565b005b6102a2600480360381019061029d9190611d3d565b610f62565b005b6102be60048036038101906102b99190611cf4565b610fd1565b6040516102cd93929190611de0565b60405180910390f35b6102de611039565b6040516102eb9190611c1a565b60405180910390f35b6102fc6110c7565b60405161030991906119f1565b60405180910390f35b61032c60048036038101906103279190611e17565b611171565b005b6103486004803603810190610343919061194c565b6114a5565b6040516103559190611ebe565b60405180910390f35b610378600480360381019061037391906119a8565b6114d8565b6040516103859190611c1a565b60405180910390f35b6103a860048036038101906103a39190611ed9565b61158b565b6040516103b59190611ebe565b60405180910390f35b6060600060016000548180546103d390611f35565b80601f01602080910402602001604051908101604052809291908181526020018280546103ff90611f35565b801561044c5780601f106104215761010080835404028352916020019161044c565b820191906000526020600020905b81548152906001019060200180831161042f57829003601f168201915b50505050509150915091509091565b60011515600260003373ffffffffffffffffffffffffffffffffffffffff1673ffffffffffffffffffffffffffffffffffffffff16815260200190815260200160002060009054906101000a900460ff16151514610523577ff9fbd55454309325ccadd998a641a1dfe7cd888eea26c0ae93b95992a13ac1446040516104e090611fb3565b60405180910390a16040517f08c379a000000000000000000000000000000000000000000000000000000000815260040161051a90611fb3565b60405180910390fd5b6000805b600660003373ffffffffffffffffffffffffffffffffffffffff1673ffffffffffffffffffffffffffffffffffffffff1681526020019081526020016000208054905081101561067e5761065e84600660003373ffffffffffffffffffffffffffffffffffffffff1673ffffffffffffffffffffffffffffffffffffffff16815260200190815260200160002083815481106105c6576105c5611fd3565b5b9060005260206000200180546105db90611f35565b80601f016020809104026020016040519081016040528092919081815260200182805461060790611f35565b80156106545780601f1061062957610100808354040283529160200191610654565b820191906000526020600020905b81548152906001019060200180831161063757829003601f168201915b50505050506115bb565b9150811561066b5761067e565b808061067690612031565b915050610527565b50806106f4577ff9fbd55454309325ccadd998a641a1dfe7cd888eea26c0ae93b95992a13ac1446040516106b1906120ec565b60405180910390a16040517f08c379a00000000000000000000000000000000000000000000000000000000081526004016106eb9061217e565b60405180910390fd5b8160058460405161070591906121da565b9081526020016040518091039020600201819055507ff9fbd55454309325ccadd998a641a1dfe7cd888eea26c0ae93b95992a13ac1446040516107479061223d565b60405180910390a1505050565b600060011515600260003373ffffffffffffffffffffffffffffffffffffffff1673ffffffffffffffffffffffffffffffffffffffff16815260200190815260200160002060009054906101000a900460ff161515146107b75760009050610948565b6000805b600660003373ffffffffffffffffffffffffffffffffffffffff1673ffffffffffffffffffffffffffffffffffffffff16815260200190815260200160002080549050811015610912576108f284600660003373ffffffffffffffffffffffffffffffffffffffff1673ffffffffffffffffffffffffffffffffffffffff168152602001908152602001600020838154811061085a57610859611fd3565b5b90600052602060002001805461086f90611f35565b80601f016020809104026020016040519081016040528092919081815260200182805461089b90611f35565b80156108e85780601f106108bd576101008083540402835291602001916108e8565b820191906000526020600020905b8154815290600101906020018083116108cb57829003601f168201915b50505050506115bb565b915081156108ff57610912565b808061090a90612031565b9150506107bb565b5080610922576000915050610948565b60058360405161093291906121da565b9081526020016040518091039020600201549150505b919050565b6000806109598361158b565b90503373ffffffffffffffffffffffffffffffffffffffff1661097c8286610d00565b73ffffffffffffffffffffffffffffffffffffffff161491505092915050565b600082600360003373ffffffffffffffffffffffffffffffffffffffff1673ffffffffffffffffffffffffffffffffffffffff168152602001908152602001600020546040516020016109f092919061227e565b6040516020818303038152906040528051906020012090506000610a14838361094d565b9050600115158115151415610b8057604051602001610a32906122f2565b604051602081830303815290604052805190602001206001604051602001610a5a919061239b565b604051602081830303815290604052805190602001201415610ab1576040517f08c379a0000000000000000000000000000000000000000000000000000000008152600401610aa8906123fe565b60405180910390fd5b8360019080519060200190610ac7929190611614565b50612710444243604051602001610ae09392919061241e565b6040516020818303038152906040528051906020012060001c610b03919061248a565b600360003373ffffffffffffffffffffffffffffffffffffffff1673ffffffffffffffffffffffffffffffffffffffff168152602001908152602001600020819055507ff9fbd55454309325ccadd998a641a1dfe7cd888eea26c0ae93b95992a13ac144604051610b739061252d565b60405180910390a1610bb6565b7ff9fbd55454309325ccadd998a641a1dfe7cd888eea26c0ae93b95992a13ac144604051610bad906125bf565b60405180910390a15b7ff9fbd55454309325ccadd998a641a1dfe7cd888eea26c0ae93b95992a13ac1446001604051610be6919061265f565b60405180910390a150505050565b8060008190555050565b60005481565b6060600482604051610c1691906121da565b908152602001604051809103902060009054906101000a900460ff1615610ce857600582604051610c4791906121da565b90815260200160405180910390206003018054610c6390611f35565b80601f0160208091040260200160405190810160405280929190818152602001828054610c8f90611f35565b8015610cdc5780601f10610cb157610100808354040283529160200191610cdc565b820191906000526020600020905b815481529060010190602001808311610cbf57829003601f168201915b50505050509050610cfb565b6040518060200160405280600081525090505b919050565b600080600080610d0f85610fd1565b92509250925060018682858560405160008152602001604052604051610d389493929190612681565b6020604051602081039080840390855afa158015610d5a573d6000803e3d6000fd5b50505060206040510351935050505092915050565b60011515600260003373ffffffffffffffffffffffffffffffffffffffff1673ffffffffffffffffffffffffffffffffffffffff16815260200190815260200160002060009054906101000a900460ff1615151415610e02577ff9fbd55454309325ccadd998a641a1dfe7cd888eea26c0ae93b95992a13ac144604051610df590612712565b60405180910390a1610f5f565b6000604051602001610e139061277e565b6040516020818303038152906040528051906020012090506000610e37838361094d565b9050600115158115151415610f21576001600260003373ffffffffffffffffffffffffffffffffffffffff1673ffffffffffffffffffffffffffffffffffffffff16815260200190815260200160002060006101000a81548160ff021916908315150217905550612710444243604051602001610eb69392919061241e565b6040516020818303038152906040528051906020012060001c610ed9919061248a565b600360003373ffffffffffffffffffffffffffffffffffffffff1673ffffffffffffffffffffffffffffffffffffffff16815260200190815260200160002081905550610f5c565b6040517f08c379a0000000000000000000000000000000000000000000000000000000008152600401610f53906127df565b60405180910390fd5b50505b50565b80600583604051610f7391906121da565b90815260200160405180910390206003019080519060200190610f97929190611614565b507ff9fbd55454309325ccadd998a641a1dfe7cd888eea26c0ae93b95992a13ac144604051610fc59061284b565b60405180910390a15050565b6000806000604184511461101a576040517f08c379a0000000000000000000000000000000000000000000000000000000008152600401611011906128b7565b60405180910390fd5b6020840151925060408401519150606084015160001a90509193909250565b6001805461104690611f35565b80601f016020809104026020016040519081016040528092919081815260200182805461107290611f35565b80156110bf5780601f10611094576101008083540402835291602001916110bf565b820191906000526020600020905b8154815290600101906020018083116110a257829003601f168201915b505050505081565b600060011515600260003373ffffffffffffffffffffffffffffffffffffffff1673ffffffffffffffffffffffffffffffffffffffff16815260200190815260200160002060009054906101000a900460ff161515141561116957600360003373ffffffffffffffffffffffffffffffffffffffff1673ffffffffffffffffffffffffffffffffffffffff16815260200190815260200160002054905061116e565b600090505b90565b6001151560048460405161118591906121da565b908152602001604051809103902060009054906101000a900460ff16151514156111e3577ff9fbd55454309325ccadd998a641a1dfe7cd888eea26c0ae93b95992a13ac1446040516111d690612923565b60405180910390a16114a0565b60011515600260003373ffffffffffffffffffffffffffffffffffffffff1673ffffffffffffffffffffffffffffffffffffffff16815260200190815260200160002060009054906101000a900460ff161515146112ab577ff9fbd55454309325ccadd998a641a1dfe7cd888eea26c0ae93b95992a13ac1446040516112689061298f565b60405180910390a16040517f08c379a00000000000000000000000000000000000000000000000000000000081526004016112a29061298f565b60405180910390fd5b60016004846040516112bd91906121da565b908152602001604051809103902060006101000a81548160ff0219169083151502179055506112ea61169a565b82816000018190525033816020019073ffffffffffffffffffffffffffffffffffffffff16908173ffffffffffffffffffffffffffffffffffffffff16815250506127104442436040516020016113439392919061241e565b6040516020818303038152906040528051906020012060001c611366919061248a565b8160400181815250508181606001819052508060058560405161138991906121da565b908152602001604051809103902060008201518160000190805190602001906113b3929190611614565b5060208201518160010160006101000a81548173ffffffffffffffffffffffffffffffffffffffff021916908373ffffffffffffffffffffffffffffffffffffffff160217905550604082015181600201556060820151816003019080519060200190611421929190611614565b50905050600660003373ffffffffffffffffffffffffffffffffffffffff1673ffffffffffffffffffffffffffffffffffffffff1681526020019081526020016000208490806001815401808255809150506001900390600052602060002001600090919091909150908051906020019061149d929190611614565b50505b505050565b600082826040516020016114ba92919061227e565b60405160208183030381529060405280519060200120905092915050565b60606005826040516114ea91906121da565b9081526020016040518091039020600001805461150690611f35565b80601f016020809104026020016040519081016040528092919081815260200182805461153290611f35565b801561157f5780601f106115545761010080835404028352916020019161157f565b820191906000526020600020905b81548152906001019060200180831161156257829003601f168201915b50505050509050919050565b60008160405160200161159e9190612a1c565b604051602081830303815290604052805190602001209050919050565b6000816040516020016115ce91906121da565b60405160208183030381529060405280519060200120836040516020016115f591906121da565b6040516020818303038152906040528051906020012014905092915050565b82805461162090611f35565b90600052602060002090601f0160209004810192826116425760008555611689565b82601f1061165b57805160ff1916838001178555611689565b82800160010185558215611689579182015b8281111561168857825182559160200191906001019061166d565b5b50905061169691906116d8565b5090565b604051806080016040528060608152602001600073ffffffffffffffffffffffffffffffffffffffff16815260200160008152602001606081525090565b5b808211156116f15760008160009055506001016116d9565b5090565b600081519050919050565b600082825260208201905092915050565b60005b8381101561172f578082015181840152602081019050611714565b8381111561173e576000848401525b50505050565b6000601f19601f8301169050919050565b6000611760826116f5565b61176a8185611700565b935061177a818560208601611711565b61178381611744565b840191505092915050565b6000819050919050565b6117a18161178e565b82525050565b600060408201905081810360008301526117c18185611755565b90506117d06020830184611798565b9392505050565b6000604051905090565b600080fd5b600080fd5b600080fd5b600080fd5b7f4e487b7100000000000000000000000000000000000000000000000000000000600052604160045260246000fd5b61182d82611744565b810181811067ffffffffffffffff8211171561184c5761184b6117f5565b5b80604052505050565b600061185f6117d7565b905061186b8282611824565b919050565b600067ffffffffffffffff82111561188b5761188a6117f5565b5b61189482611744565b9050602081019050919050565b82818337600083830152505050565b60006118c36118be84611870565b611855565b9050828152602081018484840111156118df576118de6117f0565b5b6118ea8482856118a1565b509392505050565b600082601f830112611907576119066117eb565b5b81356119178482602086016118b0565b91505092915050565b6119298161178e565b811461193457600080fd5b50565b60008135905061194681611920565b92915050565b60008060408385031215611963576119626117e1565b5b600083013567ffffffffffffffff811115611981576119806117e6565b5b61198d858286016118f2565b925050602061199e85828601611937565b9150509250929050565b6000602082840312156119be576119bd6117e1565b5b600082013567ffffffffffffffff8111156119dc576119db6117e6565b5b6119e8848285016118f2565b91505092915050565b6000602082019050611a066000830184611798565b92915050565b600067ffffffffffffffff821115611a2757611a266117f5565b5b611a3082611744565b9050602081019050919050565b6000611a50611a4b84611a0c565b611855565b905082815260208101848484011115611a6c57611a6b6117f0565b5b611a778482856118a1565b509392505050565b600082601f830112611a9457611a936117eb565b5b8135611aa4848260208601611a3d565b91505092915050565b6000819050919050565b611ac081611aad565b8114611acb57600080fd5b50565b600081359050611add81611ab7565b92915050565b60008060408385031215611afa57611af96117e1565b5b600083013567ffffffffffffffff811115611b1857611b176117e6565b5b611b2485828601611a7f565b9250506020611b3585828601611ace565b9150509250929050565b60008115159050919050565b611b5481611b3f565b82525050565b6000602082019050611b6f6000830184611b4b565b92915050565b60008060408385031215611b8c57611b8b6117e1565b5b600083013567ffffffffffffffff811115611baa57611ba96117e6565b5b611bb6858286016118f2565b925050602083013567ffffffffffffffff811115611bd757611bd66117e6565b5b611be385828601611a7f565b9150509250929050565b600060208284031215611c0357611c026117e1565b5b6000611c1184828501611937565b91505092915050565b60006020820190508181036000830152611c348184611755565b905092915050565b60008060408385031215611c5357611c526117e1565b5b6000611c6185828601611ace565b925050602083013567ffffffffffffffff811115611c8257611c816117e6565b5b611c8e85828601611a7f565b9150509250929050565b600073ffffffffffffffffffffffffffffffffffffffff82169050919050565b6000611cc382611c98565b9050919050565b611cd381611cb8565b82525050565b6000602082019050611cee6000830184611cca565b92915050565b600060208284031215611d0a57611d096117e1565b5b600082013567ffffffffffffffff811115611d2857611d276117e6565b5b611d3484828501611a7f565b91505092915050565b60008060408385031215611d5457611d536117e1565b5b600083013567ffffffffffffffff811115611d7257611d716117e6565b5b611d7e858286016118f2565b925050602083013567ffffffffffffffff811115611d9f57611d9e6117e6565b5b611dab858286016118f2565b9150509250929050565b611dbe81611aad565b82525050565b600060ff82169050919050565b611dda81611dc4565b82525050565b6000606082019050611df56000830186611db5565b611e026020830185611db5565b611e0f6040830184611dd1565b949350505050565b600080600060608486031215611e3057611e2f6117e1565b5b600084013567ffffffffffffffff811115611e4e57611e4d6117e6565b5b611e5a868287016118f2565b935050602084013567ffffffffffffffff811115611e7b57611e7a6117e6565b5b611e87868287016118f2565b925050604084013567ffffffffffffffff811115611ea857611ea76117e6565b5b611eb4868287016118f2565b9150509250925092565b6000602082019050611ed36000830184611db5565b92915050565b600060208284031215611eef57611eee6117e1565b5b6000611efd84828501611ace565b91505092915050565b7f4e487b7100000000000000000000000000000000000000000000000000000000600052602260045260246000fd5b60006002820490506001821680611f4d57607f821691505b60208210811415611f6157611f60611f06565b5b50919050565b7f47617465776179206e6f7420726567697374657265642e2e2e00000000000000600082015250565b6000611f9d601983611700565b9150611fa882611f67565b602082019050919050565b60006020820190508181036000830152611fcc81611f90565b9050919050565b7f4e487b7100000000000000000000000000000000000000000000000000000000600052603260045260246000fd5b7f4e487b7100000000000000000000000000000000000000000000000000000000600052601160045260246000fd5b600061203c8261178e565b91507fffffffffffffffffffffffffffffffffffffffffffffffffffffffffffffffff82141561206f5761206e612002565b5b600182019050919050565b7f446576696365206e6f74206173736f636961746564207769746820746869732060008201527f676174657761792e2e2e2e000000000000000000000000000000000000000000602082015250565b60006120d6602b83611700565b91506120e18261207a565b604082019050919050565b60006020820190508181036000830152612105816120c9565b9050919050565b7f446576696365206e6f74206173736f636961746564207769746820746869732060008201527f676174657761792e2e2e00000000000000000000000000000000000000000000602082015250565b6000612168602a83611700565b91506121738261210c565b604082019050919050565b600060208201905081810360008301526121978161215b565b9050919050565b600081905092915050565b60006121b4826116f5565b6121be818561219e565b93506121ce818560208601611711565b80840191505092915050565b60006121e682846121a9565b915081905092915050565b7f4e6f6e6365207375636365737366756c6c7920757064617465642e2e2e000000600082015250565b6000612227601d83611700565b9150612232826121f1565b602082019050919050565b600060208201905081810360008301526122568161221a565b9050919050565b6000819050919050565b6122786122738261178e565b61225d565b82525050565b600061228a82856121a9565b91506122968284612267565b6020820191508190509392505050565b7f796f000000000000000000000000000000000000000000000000000000000000600082015250565b60006122dc60028361219e565b91506122e7826122a6565b600282019050919050565b60006122fd826122cf565b9150819050919050565b60008190508160005260206000209050919050565b6000815461232981611f35565b612333818661219e565b9450600182166000811461234e576001811461235f57612392565b60ff19831686528186019350612392565b61236885612307565b60005b8381101561238a5781548189015260018201915060208101905061236b565b838801955050505b50505092915050565b60006123a7828461231c565b915081905092915050565b7f596179792c206572726f72206f63757272656400000000000000000000000000600082015250565b60006123e8601383611700565b91506123f3826123b2565b602082019050919050565b60006020820190508181036000830152612417816123db565b9050919050565b600061242a8286612267565b60208201915061243a8285612267565b60208201915061244a8284612267565b602082019150819050949350505050565b7f4e487b7100000000000000000000000000000000000000000000000000000000600052601260045260246000fd5b60006124958261178e565b91506124a08361178e565b9250826124b0576124af61245b565b5b828206905092915050565b7f566572696669636174696f6e2073756363657373202d20537472696e6720757060008201527f6461746564000000000000000000000000000000000000000000000000000000602082015250565b6000612517602583611700565b9150612522826124bb565b604082019050919050565b600060208201905081810360008301526125468161250a565b9050919050565b7f566572696669636174696f6e206661696c6564202d20537472696e67206e6f7460008201527f2075706461746564000000000000000000000000000000000000000000000000602082015250565b60006125a9602883611700565b91506125b48261254d565b604082019050919050565b600060208201905081810360008301526125d88161259c565b9050919050565b600081546125ec81611f35565b6125f68186611700565b94506001821660008114612611576001811461262357612656565b60ff1983168652602086019350612656565b61262c85612307565b60005b8381101561264e5781548189015260018201915060208101905061262f565b808801955050505b50505092915050565b6000602082019050818103600083015261267981846125df565b905092915050565b60006080820190506126966000830187611db5565b6126a36020830186611dd1565b6126b06040830185611db5565b6126bd6060830184611db5565b95945050505050565b7f416c726561647920726567697374657265642e2e2e0000000000000000000000600082015250565b60006126fc601583611700565b9150612707826126c6565b602082019050919050565b6000602082019050818103600083015261272b816126ef565b9050919050565b7f5265676973746572000000000000000000000000000000000000000000000000600082015250565b600061276860088361219e565b915061277382612732565b600882019050919050565b60006127898261275b565b9150819050919050565b7f526567697374726174696f6e206661696c65642e2e2e00000000000000000000600082015250565b60006127c9601683611700565b91506127d482612793565b602082019050919050565b600060208201905081810360008301526127f8816127bc565b9050919050565b7f54696d657374616d7020757064617465642e2e2e000000000000000000000000600082015250565b6000612835601483611700565b9150612840826127ff565b602082019050919050565b6000602082019050818103600083015261286481612828565b9050919050565b7f696e76616c6964207369676e6174757265206c656e6774680000000000000000600082015250565b60006128a1601883611700565b91506128ac8261286b565b602082019050919050565b600060208201905081810360008301526128d081612894565b9050919050565b7f44657669636520616c726561647920726567697374657265642e2e2e00000000600082015250565b600061290d601c83611700565b9150612918826128d7565b602082019050919050565b6000602082019050818103600083015261293c81612900565b9050919050565b7f47617465776179206e6f74207265676973746572656400000000000000000000600082015250565b6000612979601683611700565b915061298482612943565b602082019050919050565b600060208201905081810360008301526129a88161296c565b9050919050565b7f19457468657265756d205369676e6564204d6573736167653a0a333200000000600082015250565b60006129e5601c8361219e565b91506129f0826129af565b601c82019050919050565b6000819050919050565b612a16612a1182611aad565b6129fb565b82525050565b6000612a27826129d8565b9150612a338284612a05565b6020820191508190509291505056fea26469706673582212202bd4898f836c3afbeb6fe7ccacf129db2234f64ec5df79be630ce4480b3b989e64736f6c634300080a0033",
  "immutableReferences": {},
  "source": "// SPDX-License-Identifier: .\r\npragma solidity ^0.8.10;\r\n\r\ncontract Sample {\r\n    ///Blockchain state variables.\r\n\r\n    /* 'number' and 'str' are test variables */\r\n    uint public number = 10;\r\n    string public str = \"Hello\";\r\n\r\n    // 'reg' is mapping which stores whether a gateway has registered or not.\r\n    mapping(address => bool) reg;\r\n    // 'nonces' is a mapping which stores nonces for each registered gateway and changes with transaction.\r\n    mapping(address => uint) nonces;\r\n    //This mapping stores whether the dev has been registered or not.\r\n    mapping(string => bool) dev_reg;\r\n\r\n    //This structure contains the device information.\r\n    struct Device {\r\n        string pubKey;\r\n        address gate;\r\n        uint nonce;\r\n        string TS;\r\n    }\r\n\r\n    //Maps from the device id to device information which is contained in 'Device' struct.\r\n    mapping(string => Device) dev_info;\r\n    mapping(address => string[]) gate_dev;\r\n    \r\n    //Test event to listen to in the script.\r\n    event test(string _str);  \r\n\r\n    //Utility function\r\n    function str_cmp(string memory _a, string memory _b) internal pure returns(bool fl){\r\n        return keccak256(abi.encodePacked(_a)) == keccak256(abi.encodePacked(_b));\r\n    }      \r\n\r\n    /*The below 3 functions are test functions.*/\r\n\r\n\r\n    //Multiple value return.\r\n    function without_parameters() public view returns (string memory str1, uint num1) {\r\n            return (str, number);\r\n    }\r\n\r\n    //Directly update the number by 'n'.\r\n    function update(uint _n) public {\r\n            number = _n;            \r\n    } \r\n\r\n    //Test transaction to check working with signature.\r\n    function update_string(string memory _str, bytes memory signature) public {\r\n        \r\n        bytes32 messageHash = keccak256(abi.encodePacked(_str, nonces[msg.sender]));\r\n        bool status = verify(signature, messageHash);\r\n        if(status == true)\r\n        {\r\n            if(keccak256(abi.encodePacked(str)) == keccak256(abi.encodePacked(\"yo\")))\r\n            revert(\"Yayy, error ocurred\");\r\n            str = _str;\r\n            nonces[msg.sender] = uint(keccak256(abi.encodePacked(block.difficulty, block.timestamp, block.number)))%10000;\r\n            emit test(\"Verification success - String updated\");\r\n        }\r\n        else\r\n            emit test(\"Verification failed - String not updated\");\r\n\r\n        emit test(str);\r\n    }       \r\n    \r\n    //Function to retrieve nonce.\r\n    function getNonce() public view returns(uint nonce) {\r\n        if(reg[msg.sender] == true)\r\n            return nonces[msg.sender];\r\n        else\r\n            return 0;\r\n    }\r\n\r\n    function register_gateway(bytes memory signature) public {\r\n        \r\n        if(reg[msg.sender] == true)\r\n            emit test(\"Already registered...\");\r\n        else{\r\n            bytes32 messageHash = keccak256(abi.encodePacked('Register'));\r\n            bool status = verify(signature, messageHash);\r\n            if(status == true)\r\n            {\r\n                //That means the signature has been verified.\r\n                reg[msg.sender] = true;\r\n                nonces[msg.sender] = uint(keccak256(abi.encodePacked(block.difficulty, block.timestamp, block.number)))%10000;\r\n            }        \r\n            else\r\n            {\r\n                revert(\"Registration failed...\");\r\n            }\r\n        }\r\n    }\r\n\r\n    function register_device(string memory _devId, string memory _pub, string memory _TS) public {\r\n        \r\n        if(dev_reg[_devId] == true)\r\n            emit test(\"Device already registered...\");\r\n\r\n        else if(reg[msg.sender] != true){\r\n            emit test(\"Gateway not registered\");\r\n            revert(\"Gateway not registered\");\r\n        }\r\n        else{                        \r\n            //Since the status has been verified, things to do are:\r\n            //1. Mark the device as registered.\r\n            dev_reg[_devId] = true;\r\n            //2. Create a new struct with the information.\r\n            Device memory dev;\r\n            dev.pubKey = _pub;\r\n            dev.gate = msg.sender;\r\n            dev.nonce = uint(keccak256(abi.encodePacked(block.difficulty, block.timestamp, block.number)))%10000;\r\n            dev.TS = _TS;\r\n            //3. Map the device id to the created struct.\r\n            dev_info[_devId] = dev;\r\n\r\n            //4. Also add the device id to the list of devices under the associated gatewyay.  \r\n            gate_dev[msg.sender].push(_devId);                                  \r\n        }\r\n    }\r\n\r\n    //Function to check whether device has been registered or not. If yes, returns the timestamp of the last request.\r\n    function check_device(string memory _devId) public view returns(string memory){                \r\n        if (dev_reg[_devId])\r\n            return dev_info[_devId].TS;\r\n        else\r\n            return \"\";\r\n    }\r\n\r\n    function update_timestamp(string memory _devId, string memory _TS) public {\r\n        dev_info[_devId].TS = _TS;\r\n        emit test(\"Timestamp updated...\");\r\n    }\r\n\r\n    function get_device_key(string memory _devId) public view returns(string memory){                \r\n        return dev_info[_devId].pubKey;\r\n    }\r\n\r\n\r\n    //The gateway adds the\r\n    function add_device_nonce(string memory _devId, uint _nonce) public {\r\n        //Check whether the gateway is registered.\r\n        //Also check whether the device is under this gateway.\r\n        if(reg[msg.sender] != true)\r\n        {\r\n            emit test(\"Gateway not registered...\");\r\n            revert(\"Gateway not registered...\");\r\n        }\r\n        \r\n        bool fl = false;\r\n        for(uint i=0;i<gate_dev[msg.sender].length;i++)\r\n        {\r\n            fl = str_cmp(_devId, gate_dev[msg.sender][i]);\r\n            if(fl)\r\n                break;\r\n        }\r\n\r\n        if(!fl)\r\n        {\r\n            emit test(\"Device not associated with this gateway....\");\r\n            revert(\"Device not associated with this gateway...\");\r\n        }    \r\n        \r\n        //Add a nonce for the device here.\r\n        dev_info[_devId].nonce = _nonce;   \r\n        emit test(\"Nonce successfully updated...\");\r\n    }\r\n\r\n    function get_device_nonce(string memory _devId) public view returns(uint nonce){\r\n        //Check whether the gateway is registered.\r\n        //Also check whether the device is under this gateway.\r\n        if(reg[msg.sender] != true)                   \r\n            return 0;                    \r\n        \r\n        bool fl = false;\r\n        for(uint i=0;i<gate_dev[msg.sender].length;i++)\r\n        {\r\n            fl = str_cmp(_devId, gate_dev[msg.sender][i]);\r\n            if(fl)\r\n                break;\r\n        }\r\n\r\n        if(!fl)                    \r\n            return 0;           \r\n        \r\n        //Return nonce for the device here.\r\n        return dev_info[_devId].nonce;               \r\n    }\r\n    \r\n\r\n\r\n\r\n\r\n    function verify(\r\n        bytes memory signature,\r\n        bytes32 messageHash        \r\n    ) public view returns (bool) {        \r\n        bytes32 ethSignedMessageHash = getEthSignedMessageHash(messageHash);\r\n\r\n        return recoverSigner(ethSignedMessageHash, signature) == msg.sender;\r\n    }\r\n\r\n    function getMessageHash(        \r\n        string memory _message ,\r\n        uint _nonce       \r\n    ) public pure returns (bytes32) {\r\n        return keccak256(abi.encodePacked(_message, _nonce));\r\n    }\r\n\r\n    function getEthSignedMessageHash(bytes32 _messageHash)\r\n        public\r\n        pure\r\n        returns (bytes32)\r\n    {\r\n        /*\r\n        Signature is produced by signing a keccak256 hash with the following format:\r\n        \"\\x19Ethereum Signed Message\\n\" + len(msg) + msg\r\n        */\r\n        return\r\n            keccak256(\r\n                abi.encodePacked(\"\\x19Ethereum Signed Message:\\n32\", _messageHash)\r\n            );\r\n    }\r\n\r\n    function recoverSigner(bytes32 _ethSignedMessageHash, bytes memory _signature)\r\n        public\r\n        pure\r\n        returns (address)\r\n    {\r\n        (bytes32 r, bytes32 s, uint8 v) = splitSignature(_signature);\r\n\r\n        return ecrecover(_ethSignedMessageHash, v, r, s);\r\n    }\r\n\r\n    function splitSignature(bytes memory sig)\r\n        public\r\n        pure\r\n        returns (\r\n            bytes32 r,\r\n            bytes32 s,\r\n            uint8 v\r\n        )\r\n    {\r\n        require(sig.length == 65, \"invalid signature length\");\r\n\r\n        assembly {\r\n            /*\r\n            First 32 bytes stores the length of the signature\r\n\r\n            add(sig, 32) = pointer of sig + 32\r\n            effectively, skips first 32 bytes of signature\r\n\r\n            mload(p) loads next 32 bytes starting at the memory address p into memory\r\n            */\r\n\r\n            // first 32 bytes, after the length prefix\r\n            r := mload(add(sig, 32))\r\n            // second 32 bytes\r\n            s := mload(add(sig, 64))\r\n            // final byte (first byte of the next 32 bytes)\r\n            v := byte(0, mload(add(sig, 96)))\r\n        }\r\n\r\n        // implicitly return (r, s, v)\r\n    }\r\n}",
  "sourcePath": "D:\\Semester 4-1\\Final year project\\fyp\\contracts\\Sample.sol",
  "compiler": {
    "name": "solc",
    "version": "0.8.10+commit.fc410830.Emscripten.clang"
  },
  "schemaVersion": "3.4.4",
  "updatedAt": "2022-03-15T04:01:29.305Z",
  "networkType": "ethereum",
  "devdoc": {
    "kind": "dev",
    "methods": {},
    "version": 1
  },
  "userdoc": {
    "kind": "user",
    "methods": {
      "number()": {
        "notice": "Blockchain state variables."
      }
    },
    "version": 1
  }
}