{
  "contractName": "Sample",
  "abi": [
    {
      "anonymous": false,
      "inputs": [
        {
          "indexed": false,
          "internalType": "string",
          "name": "_str",
          "type": "string"
        }
      ],
      "name": "test",
      "type": "event"
    },
    {
      "inputs": [],
      "name": "number",
      "outputs": [
        {
          "internalType": "uint256",
          "name": "",
          "type": "uint256"
        }
      ],
      "stateMutability": "view",
      "type": "function",
      "constant": true
    },
    {
      "inputs": [],
      "name": "str",
      "outputs": [
        {
          "internalType": "string",
          "name": "",
          "type": "string"
        }
      ],
      "stateMutability": "view",
      "type": "function",
      "constant": true
    },
    {
      "inputs": [],
      "name": "update",
      "outputs": [],
      "stateMutability": "nonpayable",
      "type": "function"
    },
    {
      "inputs": [
        {
          "internalType": "string",
          "name": "_str",
          "type": "string"
        }
      ],
      "name": "update_string",
      "outputs": [],
      "stateMutability": "nonpayable",
      "type": "function"
    }
  ],
  "bytecode": "0x60806040526040518060400160405280600581526020017f48656c6c6f0000000000000000000000000000000000000000000000000000008152506001908051906020019061004f929190610062565b5034801561005c57600080fd5b50610166565b82805461006e90610134565b90600052602060002090601f01602090048101928261009057600085556100d7565b82601f106100a957805160ff19168380011785556100d7565b828001600101855582156100d7579182015b828111156100d65782518255916020019190600101906100bb565b5b5090506100e491906100e8565b5090565b5b808211156101015760008160009055506001016100e9565b5090565b7f4e487b7100000000000000000000000000000000000000000000000000000000600052602260045260246000fd5b6000600282049050600182168061014c57607f821691505b602082108114156101605761015f610105565b5b50919050565b610898806101756000396000f3fe608060405234801561001057600080fd5b506004361061004c5760003560e01c8063166a0bb8146100515780638381f58a1461006d578063a2e620451461008b578063c15bae8414610095575b600080fd5b61006b6004803603810190610066919061043d565b6100b3565b005b610075610193565b604051610082919061049f565b60405180910390f35b610093610199565b005b61009d6101b2565b6040516100aa9190610542565b60405180910390f35b80600190805190602001906100c9929190610240565b506040516020016100d9906105bb565b60405160208183030381529060405280519060200120600160405160200161010191906106c5565b604051602081830303815290604052805190602001201415610158576040517f08c379a000000000000000000000000000000000000000000000000000000000815260040161014f90610728565b60405180910390fd5b7ff9fbd55454309325ccadd998a641a1dfe7cd888eea26c0ae93b95992a13ac144600160405161018891906107c8565b60405180910390a150565b60005481565b6000808154809291906101ab90610819565b9190505550565b600180546101bf906105ff565b80601f01602080910402602001604051908101604052809291908181526020018280546101eb906105ff565b80156102385780601f1061020d57610100808354040283529160200191610238565b820191906000526020600020905b81548152906001019060200180831161021b57829003601f168201915b505050505081565b82805461024c906105ff565b90600052602060002090601f01602090048101928261026e57600085556102b5565b82601f1061028757805160ff19168380011785556102b5565b828001600101855582156102b5579182015b828111156102b4578251825591602001919060010190610299565b5b5090506102c291906102c6565b5090565b5b808211156102df5760008160009055506001016102c7565b5090565b6000604051905090565b600080fd5b600080fd5b600080fd5b600080fd5b6000601f19601f8301169050919050565b7f4e487b7100000000000000000000000000000000000000000000000000000000600052604160045260246000fd5b61034a82610301565b810181811067ffffffffffffffff8211171561036957610368610312565b5b80604052505050565b600061037c6102e3565b90506103888282610341565b919050565b600067ffffffffffffffff8211156103a8576103a7610312565b5b6103b182610301565b9050602081019050919050565b82818337600083830152505050565b60006103e06103db8461038d565b610372565b9050828152602081018484840111156103fc576103fb6102fc565b5b6104078482856103be565b509392505050565b600082601f830112610424576104236102f7565b5b81356104348482602086016103cd565b91505092915050565b600060208284031215610453576104526102ed565b5b600082013567ffffffffffffffff811115610471576104706102f2565b5b61047d8482850161040f565b91505092915050565b6000819050919050565b61049981610486565b82525050565b60006020820190506104b46000830184610490565b92915050565b600081519050919050565b600082825260208201905092915050565b60005b838110156104f45780820151818401526020810190506104d9565b83811115610503576000848401525b50505050565b6000610514826104ba565b61051e81856104c5565b935061052e8185602086016104d6565b61053781610301565b840191505092915050565b6000602082019050818103600083015261055c8184610509565b905092915050565b600081905092915050565b7f796f000000000000000000000000000000000000000000000000000000000000600082015250565b60006105a5600283610564565b91506105b08261056f565b600282019050919050565b60006105c682610598565b9150819050919050565b7f4e487b7100000000000000000000000000000000000000000000000000000000600052602260045260246000fd5b6000600282049050600182168061061757607f821691505b6020821081141561062b5761062a6105d0565b5b50919050565b60008190508160005260206000209050919050565b60008154610653816105ff565b61065d8186610564565b945060018216600081146106785760018114610689576106bc565b60ff198316865281860193506106bc565b61069285610631565b60005b838110156106b457815481890152600182019150602081019050610695565b838801955050505b50505092915050565b60006106d18284610646565b915081905092915050565b7f596179792c206572726f72206f63757272656400000000000000000000000000600082015250565b60006107126013836104c5565b915061071d826106dc565b602082019050919050565b6000602082019050818103600083015261074181610705565b9050919050565b60008154610755816105ff565b61075f81866104c5565b9450600182166000811461077a576001811461078c576107bf565b60ff19831686526020860193506107bf565b61079585610631565b60005b838110156107b757815481890152600182019150602081019050610798565b808801955050505b50505092915050565b600060208201905081810360008301526107e28184610748565b905092915050565b7f4e487b7100000000000000000000000000000000000000000000000000000000600052601160045260246000fd5b600061082482610486565b91507fffffffffffffffffffffffffffffffffffffffffffffffffffffffffffffffff821415610857576108566107ea565b5b60018201905091905056fea2646970667358221220dc26627a1ab66b8f78702204d65cbbabbd2d33d3d9fbcbbac8a7c031abb6374d64736f6c634300080a0033",
  "immutableReferences": {},
  "source": "// SPDX-License-Identifier: MIT\r\npragma solidity ^0.8.10;\r\n\r\ncontract Sample {\r\n    uint public number;\r\n    string public str = \"Hello\";\r\n    event test(string _str);\r\n    function update() public {\r\n        number ++;\r\n    }\r\n\r\n    function update_string(string memory _str) public {\r\n        str = _str;\r\n        if(keccak256(abi.encodePacked(str)) == keccak256(abi.encodePacked(\"yo\")))\r\n            revert(\"Yayy, error ocurred\");\r\n        emit test(str);\r\n    }\r\n}",
  "sourcePath": "D:\\Semester 4-1\\Final year project\\Project_source_code\\contracts\\Sample.sol",
  "compiler": {
    "name": "solc",
    "version": "0.8.10+commit.fc410830.Emscripten.clang"
  },
  "schemaVersion": "3.4.4",
  "updatedAt": "2022-01-10T21:29:51.708Z",
  "networkType": "ethereum",
  "devdoc": {
    "kind": "dev",
    "methods": {},
    "version": 1
  },
  "userdoc": {
    "kind": "user",
    "methods": {},
    "version": 1
  }
}