{
  "contractName": "Sample",
  "abi": [
    {
      "anonymous": false,
      "inputs": [
        {
          "indexed": true,
          "internalType": "address",
          "name": "gateway",
          "type": "address"
        },
        {
          "indexed": false,
          "internalType": "string",
          "name": "devId",
          "type": "string"
        }
      ],
      "name": "receive_message",
      "type": "event"
    },
    {
      "anonymous": false,
      "inputs": [
        {
          "indexed": false,
          "internalType": "string",
          "name": "_str",
          "type": "string"
        }
      ],
      "name": "test",
      "type": "event"
    },
    {
      "inputs": [],
      "name": "number",
      "outputs": [
        {
          "internalType": "uint256",
          "name": "",
          "type": "uint256"
        }
      ],
      "stateMutability": "view",
      "type": "function",
      "constant": true
    },
    {
      "inputs": [],
      "name": "str",
      "outputs": [
        {
          "internalType": "string",
          "name": "",
          "type": "string"
        }
      ],
      "stateMutability": "view",
      "type": "function",
      "constant": true
    },
    {
      "inputs": [],
      "name": "without_parameters",
      "outputs": [
        {
          "internalType": "string",
          "name": "str1",
          "type": "string"
        },
        {
          "internalType": "uint256",
          "name": "num1",
          "type": "uint256"
        }
      ],
      "stateMutability": "view",
      "type": "function",
      "constant": true
    },
    {
      "inputs": [
        {
          "internalType": "uint256",
          "name": "_n",
          "type": "uint256"
        }
      ],
      "name": "update",
      "outputs": [],
      "stateMutability": "nonpayable",
      "type": "function"
    },
    {
      "inputs": [
        {
          "internalType": "string",
          "name": "_str",
          "type": "string"
        },
        {
          "internalType": "bytes",
          "name": "signature",
          "type": "bytes"
        }
      ],
      "name": "update_string",
      "outputs": [],
      "stateMutability": "nonpayable",
      "type": "function"
    },
    {
      "inputs": [],
      "name": "getNonce",
      "outputs": [
        {
          "internalType": "uint256",
          "name": "nonce",
          "type": "uint256"
        }
      ],
      "stateMutability": "view",
      "type": "function",
      "constant": true
    },
    {
      "inputs": [
        {
          "internalType": "bytes",
          "name": "signature",
          "type": "bytes"
        }
      ],
      "name": "register_gateway",
      "outputs": [],
      "stateMutability": "nonpayable",
      "type": "function"
    },
    {
      "inputs": [
        {
          "internalType": "string",
          "name": "_devId",
          "type": "string"
        },
        {
          "internalType": "string",
          "name": "_pub",
          "type": "string"
        },
        {
          "internalType": "string",
          "name": "_TS",
          "type": "string"
        }
      ],
      "name": "register_device",
      "outputs": [],
      "stateMutability": "nonpayable",
      "type": "function"
    },
    {
      "inputs": [
        {
          "internalType": "string",
          "name": "_devId",
          "type": "string"
        }
      ],
      "name": "check_device",
      "outputs": [
        {
          "internalType": "string",
          "name": "",
          "type": "string"
        }
      ],
      "stateMutability": "view",
      "type": "function",
      "constant": true
    },
    {
      "inputs": [
        {
          "internalType": "string",
          "name": "_devId",
          "type": "string"
        },
        {
          "internalType": "string",
          "name": "_TS",
          "type": "string"
        }
      ],
      "name": "update_timestamp",
      "outputs": [],
      "stateMutability": "nonpayable",
      "type": "function"
    },
    {
      "inputs": [
        {
          "internalType": "string",
          "name": "_devId",
          "type": "string"
        }
      ],
      "name": "get_device_key",
      "outputs": [
        {
          "internalType": "string",
          "name": "",
          "type": "string"
        }
      ],
      "stateMutability": "view",
      "type": "function",
      "constant": true
    },
    {
      "inputs": [
        {
          "internalType": "string",
          "name": "_devId",
          "type": "string"
        },
        {
          "internalType": "string",
          "name": "_recvId",
          "type": "string"
        }
      ],
      "name": "update_recipient",
      "outputs": [],
      "stateMutability": "nonpayable",
      "type": "function"
    },
    {
      "inputs": [
        {
          "internalType": "string",
          "name": "_devId",
          "type": "string"
        },
        {
          "internalType": "string",
          "name": "_msg",
          "type": "string"
        }
      ],
      "name": "communicate",
      "outputs": [],
      "stateMutability": "nonpayable",
      "type": "function"
    },
    {
      "inputs": [],
      "name": "getMessage",
      "outputs": [
        {
          "internalType": "string",
          "name": "from",
          "type": "string"
        },
        {
          "internalType": "string",
          "name": "_str",
          "type": "string"
        }
      ],
      "stateMutability": "view",
      "type": "function",
      "constant": true
    },
    {
      "inputs": [
        {
          "internalType": "string",
          "name": "_devId",
          "type": "string"
        }
      ],
      "name": "update_device_nonce",
      "outputs": [],
      "stateMutability": "nonpayable",
      "type": "function"
    },
    {
      "inputs": [
        {
          "internalType": "string",
          "name": "_devId",
          "type": "string"
        }
      ],
      "name": "get_device_nonce",
      "outputs": [
        {
          "internalType": "uint256",
          "name": "nonce",
          "type": "uint256"
        }
      ],
      "stateMutability": "view",
      "type": "function",
      "constant": true
    },
    {
      "inputs": [
        {
          "internalType": "bytes",
          "name": "signature",
          "type": "bytes"
        },
        {
          "internalType": "bytes32",
          "name": "messageHash",
          "type": "bytes32"
        }
      ],
      "name": "verify",
      "outputs": [
        {
          "internalType": "bool",
          "name": "",
          "type": "bool"
        }
      ],
      "stateMutability": "view",
      "type": "function",
      "constant": true
    },
    {
      "inputs": [
        {
          "internalType": "string",
          "name": "_message",
          "type": "string"
        },
        {
          "internalType": "uint256",
          "name": "_nonce",
          "type": "uint256"
        }
      ],
      "name": "getMessageHash",
      "outputs": [
        {
          "internalType": "bytes32",
          "name": "",
          "type": "bytes32"
        }
      ],
      "stateMutability": "pure",
      "type": "function",
      "constant": true
    },
    {
      "inputs": [
        {
          "internalType": "bytes32",
          "name": "_messageHash",
          "type": "bytes32"
        }
      ],
      "name": "getEthSignedMessageHash",
      "outputs": [
        {
          "internalType": "bytes32",
          "name": "",
          "type": "bytes32"
        }
      ],
      "stateMutability": "pure",
      "type": "function",
      "constant": true
    },
    {
      "inputs": [
        {
          "internalType": "bytes32",
          "name": "_ethSignedMessageHash",
          "type": "bytes32"
        },
        {
          "internalType": "bytes",
          "name": "_signature",
          "type": "bytes"
        }
      ],
      "name": "recoverSigner",
      "outputs": [
        {
          "internalType": "address",
          "name": "",
          "type": "address"
        }
      ],
      "stateMutability": "pure",
      "type": "function",
      "constant": true
    },
    {
      "inputs": [
        {
          "internalType": "bytes",
          "name": "sig",
          "type": "bytes"
        }
      ],
      "name": "splitSignature",
      "outputs": [
        {
          "internalType": "bytes32",
          "name": "r",
          "type": "bytes32"
        },
        {
          "internalType": "bytes32",
          "name": "s",
          "type": "bytes32"
        },
        {
          "internalType": "uint8",
          "name": "v",
          "type": "uint8"
        }
      ],
      "stateMutability": "pure",
      "type": "function",
      "constant": true
    }
  ],
  "bytecode": "0x6080604052600a6000556040518060400160405280600581526020017f48656c6c6f00000000000000000000000000000000000000000000000000000081525060019080519060200190620000569291906200006b565b503480156200006457600080fd5b5062000180565b82805462000079906200014a565b90600052602060002090601f0160209004810192826200009d5760008555620000e9565b82601f10620000b857805160ff1916838001178555620000e9565b82800160010185558215620000e9579182015b82811115620000e8578251825591602001919060010190620000cb565b5b509050620000f89190620000fc565b5090565b5b8082111562000117576000816000905550600101620000fd565b5090565b7f4e487b7100000000000000000000000000000000000000000000000000000000600052602260045260246000fd5b600060028204905060018216806200016357607f821691505b602082108114156200017a57620001796200011b565b5b50919050565b61345b80620001906000396000f3fe608060405234801561001057600080fd5b50600436106101375760003560e01c8063a6bf9028116100b8578063d075b7bf1161007c578063d075b7bf14610350578063d087d2881461036c578063d38fe6361461038a578063d4aa6916146103a6578063e594d0f1146103d6578063fa5408011461040657610137565b8063a6bf9028146102a9578063a7bb5803146102c5578063a9eb4101146102f7578063c15bae8414610313578063ce6d41de1461033157610137565b806382ab890a116100ff57806382ab890a146101f35780638381f58a1461020f57806393c7a68b1461022d57806397aba7f91461025d578063a0c265f81461028d57610137565b8063119559dc1461013c5780634ea36e32146101585780635b72ae05146101775780636b406341146101a75780637737879f146101d7575b600080fd5b6101566004803603810190610151919061215b565b610436565b005b610160610768565b60405161016e929190612245565b60405180910390f35b610191600480360381019061018c919061215b565b610805565b60405161019e9190612275565b60405180910390f35b6101c160048036038101906101bc9190612367565b6109fe565b6040516101ce91906123de565b60405180910390f35b6101f160048036038101906101ec91906123f9565b610a4d565b005b61020d6004803603810190610208919061249d565b610ca5565b005b610217610caf565b6040516102249190612275565b60405180910390f35b6102476004803603810190610242919061215b565b610cb5565b60405161025491906124ca565b60405180910390f35b610277600480360381019061027291906124ec565b610db1565b6040516102849190612589565b60405180910390f35b6102a760048036038101906102a291906125a4565b610e20565b005b6102c360048036038101906102be91906125ed565b611013565b005b6102df60048036038101906102da91906125a4565b611082565b6040516102ee93929190612690565b60405180910390f35b610311600480360381019061030c91906125ed565b6110ea565b005b61031b611159565b60405161032891906124ca565b60405180910390f35b6103396111e7565b6040516103479291906126c7565b60405180910390f35b61036a600480360381019061036591906125ed565b61142e565b005b610374611976565b6040516103819190612275565b60405180910390f35b6103a4600480360381019061039f91906126fe565b611a20565b005b6103c060048036038101906103bb91906127a5565b611d89565b6040516103cd9190612801565b60405180910390f35b6103f060048036038101906103eb919061215b565b611dbc565b6040516103fd91906124ca565b60405180910390f35b610420600480360381019061041b919061281c565b611e6f565b60405161042d9190612801565b60405180910390f35b60011515600260003373ffffffffffffffffffffffffffffffffffffffff1673ffffffffffffffffffffffffffffffffffffffff16815260200190815260200160002060009054906101000a900460ff161515146104fe577ff9fbd55454309325ccadd998a641a1dfe7cd888eea26c0ae93b95992a13ac1446040516104bb90612895565b60405180910390a16040517f08c379a00000000000000000000000000000000000000000000000000000000081526004016104f590612895565b60405180910390fd5b6000805b600660003373ffffffffffffffffffffffffffffffffffffffff1673ffffffffffffffffffffffffffffffffffffffff168152602001908152602001600020805490508110156106595761063983600660003373ffffffffffffffffffffffffffffffffffffffff1673ffffffffffffffffffffffffffffffffffffffff16815260200190815260200160002083815481106105a1576105a06128b5565b5b9060005260206000200180546105b690612913565b80601f01602080910402602001604051908101604052809291908181526020018280546105e290612913565b801561062f5780601f106106045761010080835404028352916020019161062f565b820191906000526020600020905b81548152906001019060200180831161061257829003601f168201915b5050505050611e9f565b9150811561064657610659565b808061065190612974565b915050610502565b50806106cf577ff9fbd55454309325ccadd998a641a1dfe7cd888eea26c0ae93b95992a13ac14460405161068c90612a2f565b60405180910390a16040517f08c379a00000000000000000000000000000000000000000000000000000000081526004016106c690612ac1565b60405180910390fd5b6127104442436040516020016106e793929190612b02565b6040516020818303038152906040528051906020012060001c61070a9190612b6e565b60058360405161071a9190612bdb565b9081526020016040518091039020600201819055507ff9fbd55454309325ccadd998a641a1dfe7cd888eea26c0ae93b95992a13ac14460405161075c90612c3e565b60405180910390a15050565b60606000600160005481805461077d90612913565b80601f01602080910402602001604051908101604052809291908181526020018280546107a990612913565b80156107f65780601f106107cb576101008083540402835291602001916107f6565b820191906000526020600020905b8154815290600101906020018083116107d957829003601f168201915b50505050509150915091509091565b600060011515600260003373ffffffffffffffffffffffffffffffffffffffff1673ffffffffffffffffffffffffffffffffffffffff16815260200190815260200160002060009054906101000a900460ff1615151461086857600090506109f9565b6000805b600660003373ffffffffffffffffffffffffffffffffffffffff1673ffffffffffffffffffffffffffffffffffffffff168152602001908152602001600020805490508110156109c3576109a384600660003373ffffffffffffffffffffffffffffffffffffffff1673ffffffffffffffffffffffffffffffffffffffff168152602001908152602001600020838154811061090b5761090a6128b5565b5b90600052602060002001805461092090612913565b80601f016020809104026020016040519081016040528092919081815260200182805461094c90612913565b80156109995780601f1061096e57610100808354040283529160200191610999565b820191906000526020600020905b81548152906001019060200180831161097c57829003601f168201915b5050505050611e9f565b915081156109b0576109c3565b80806109bb90612974565b91505061086c565b50806109d35760009150506109f9565b6005836040516109e39190612bdb565b9081526020016040518091039020600201549150505b919050565b600080610a0a83611e6f565b90503373ffffffffffffffffffffffffffffffffffffffff16610a2d8286610db1565b73ffffffffffffffffffffffffffffffffffffffff161491505092915050565b600082600360003373ffffffffffffffffffffffffffffffffffffffff1673ffffffffffffffffffffffffffffffffffffffff16815260200190815260200160002054604051602001610aa1929190612c5e565b6040516020818303038152906040528051906020012090506000610ac583836109fe565b9050600115158115151415610c3157604051602001610ae390612cd2565b604051602081830303815290604052805190602001206001604051602001610b0b9190612d7b565b604051602081830303815290604052805190602001201415610b62576040517f08c379a0000000000000000000000000000000000000000000000000000000008152600401610b5990612dde565b60405180910390fd5b8360019080519060200190610b78929190611ef8565b50612710444243604051602001610b9193929190612b02565b6040516020818303038152906040528051906020012060001c610bb49190612b6e565b600360003373ffffffffffffffffffffffffffffffffffffffff1673ffffffffffffffffffffffffffffffffffffffff168152602001908152602001600020819055507ff9fbd55454309325ccadd998a641a1dfe7cd888eea26c0ae93b95992a13ac144604051610c2490612e70565b60405180910390a1610c67565b7ff9fbd55454309325ccadd998a641a1dfe7cd888eea26c0ae93b95992a13ac144604051610c5e90612f02565b60405180910390a15b7ff9fbd55454309325ccadd998a641a1dfe7cd888eea26c0ae93b95992a13ac1446001604051610c979190612fa2565b60405180910390a150505050565b8060008190555050565b60005481565b6060600482604051610cc79190612bdb565b908152602001604051809103902060009054906101000a900460ff1615610d9957600582604051610cf89190612bdb565b90815260200160405180910390206003018054610d1490612913565b80601f0160208091040260200160405190810160405280929190818152602001828054610d4090612913565b8015610d8d5780601f10610d6257610100808354040283529160200191610d8d565b820191906000526020600020905b815481529060010190602001808311610d7057829003601f168201915b50505050509050610dac565b6040518060200160405280600081525090505b919050565b600080600080610dc085611082565b92509250925060018682858560405160008152602001604052604051610de99493929190612fc4565b6020604051602081039080840390855afa158015610e0b573d6000803e3d6000fd5b50505060206040510351935050505092915050565b60011515600260003373ffffffffffffffffffffffffffffffffffffffff1673ffffffffffffffffffffffffffffffffffffffff16815260200190815260200160002060009054906101000a900460ff1615151415610eb3577ff9fbd55454309325ccadd998a641a1dfe7cd888eea26c0ae93b95992a13ac144604051610ea690613055565b60405180910390a1611010565b6000604051602001610ec4906130c1565b6040516020818303038152906040528051906020012090506000610ee883836109fe565b9050600115158115151415610fd2576001600260003373ffffffffffffffffffffffffffffffffffffffff1673ffffffffffffffffffffffffffffffffffffffff16815260200190815260200160002060006101000a81548160ff021916908315150217905550612710444243604051602001610f6793929190612b02565b6040516020818303038152906040528051906020012060001c610f8a9190612b6e565b600360003373ffffffffffffffffffffffffffffffffffffffff1673ffffffffffffffffffffffffffffffffffffffff1681526020019081526020016000208190555061100d565b6040517f08c379a000000000000000000000000000000000000000000000000000000000815260040161100490613122565b60405180910390fd5b50505b50565b806005836040516110249190612bdb565b90815260200160405180910390206003019080519060200190611048929190611ef8565b507ff9fbd55454309325ccadd998a641a1dfe7cd888eea26c0ae93b95992a13ac1446040516110769061318e565b60405180910390a15050565b600080600060418451146110cb576040517f08c379a00000000000000000000000000000000000000000000000000000000081526004016110c2906131fa565b60405180910390fd5b6020840151925060408401519150606084015160001a90509193909250565b806005836040516110fb9190612bdb565b9081526020016040518091039020600401908051906020019061111f929190611ef8565b507ff9fbd55454309325ccadd998a641a1dfe7cd888eea26c0ae93b95992a13ac14460405161114d90613266565b60405180910390a15050565b6001805461116690612913565b80601f016020809104026020016040519081016040528092919081815260200182805461119290612913565b80156111df5780601f106111b4576101008083540402835291602001916111df565b820191906000526020600020905b8154815290600101906020018083116111c257829003601f168201915b505050505081565b6060806000600760003373ffffffffffffffffffffffffffffffffffffffff1673ffffffffffffffffffffffffffffffffffffffff168152602001908152602001600020805490509050600760003373ffffffffffffffffffffffffffffffffffffffff1673ffffffffffffffffffffffffffffffffffffffff16815260200190815260200160002060018261127d9190613286565b8154811061128e5761128d6128b5565b5b9060005260206000209060030201600001600760003373ffffffffffffffffffffffffffffffffffffffff1673ffffffffffffffffffffffffffffffffffffffff1681526020019081526020016000206001836112eb9190613286565b815481106112fc576112fb6128b5565b5b906000526020600020906003020160020181805461131990612913565b80601f016020809104026020016040519081016040528092919081815260200182805461134590612913565b80156113925780601f1061136757610100808354040283529160200191611392565b820191906000526020600020905b81548152906001019060200180831161137557829003601f168201915b505050505091508080546113a590612913565b80601f01602080910402602001604051908101604052809291908181526020018280546113d190612913565b801561141e5780601f106113f35761010080835404028352916020019161141e565b820191906000526020600020905b81548152906001019060200180831161140157829003601f168201915b5050505050905092509250509091565b60011515600260003373ffffffffffffffffffffffffffffffffffffffff1673ffffffffffffffffffffffffffffffffffffffff16815260200190815260200160002060009054906101000a900460ff161515146114f6577ff9fbd55454309325ccadd998a641a1dfe7cd888eea26c0ae93b95992a13ac1446040516114b390612895565b60405180910390a16040517f08c379a00000000000000000000000000000000000000000000000000000000081526004016114ed90612895565b60405180910390fd5b6000805b600660003373ffffffffffffffffffffffffffffffffffffffff1673ffffffffffffffffffffffffffffffffffffffff168152602001908152602001600020805490508110156116515761163184600660003373ffffffffffffffffffffffffffffffffffffffff1673ffffffffffffffffffffffffffffffffffffffff1681526020019081526020016000208381548110611599576115986128b5565b5b9060005260206000200180546115ae90612913565b80601f01602080910402602001604051908101604052809291908181526020018280546115da90612913565b80156116275780601f106115fc57610100808354040283529160200191611627565b820191906000526020600020905b81548152906001019060200180831161160a57829003601f168201915b5050505050611e9f565b9150811561163e57611651565b808061164990612974565b9150506114fa565b50806116c7577ff9fbd55454309325ccadd998a641a1dfe7cd888eea26c0ae93b95992a13ac14460405161168490612a2f565b60405180910390a16040517f08c379a00000000000000000000000000000000000000000000000000000000081526004016116be90612ac1565b60405180910390fd5b60006005846040516116d99190612bdb565b908152602001604051809103902060040180546116f590612913565b80601f016020809104026020016040519081016040528092919081815260200182805461172190612913565b801561176e5780601f106117435761010080835404028352916020019161176e565b820191906000526020600020905b81548152906001019060200180831161175157829003601f168201915b5050505050905061177d611f7e565b848160000181905250818160200181905250838160400181905250600760006005846040516117ac9190612bdb565b908152602001604051809103902060010160009054906101000a900473ffffffffffffffffffffffffffffffffffffffff1673ffffffffffffffffffffffffffffffffffffffff1673ffffffffffffffffffffffffffffffffffffffff168152602001908152602001600020819080600181540180825580915050600190039060005260206000209060030201600090919091909150600082015181600001908051906020019061185e929190611ef8565b50602082015181600101908051906020019061187b929190611ef8565b506040820151816002019080519060200190611898929190611ef8565b505050604051806020016040528060008152506005866040516118bb9190612bdb565b908152602001604051809103902060040190805190602001906118df929190611ef8565b506005826040516118f09190612bdb565b908152602001604051809103902060010160009054906101000a900473ffffffffffffffffffffffffffffffffffffffff1673ffffffffffffffffffffffffffffffffffffffff167f0d4847e7a0fec04b76bf0bba9d0c9f2673273b35ba00aa7229d254aa01be4b7d8360405161196791906124ca565b60405180910390a25050505050565b600060011515600260003373ffffffffffffffffffffffffffffffffffffffff1673ffffffffffffffffffffffffffffffffffffffff16815260200190815260200160002060009054906101000a900460ff1615151415611a1857600360003373ffffffffffffffffffffffffffffffffffffffff1673ffffffffffffffffffffffffffffffffffffffff168152602001908152602001600020549050611a1d565b600090505b90565b60011515600484604051611a349190612bdb565b908152602001604051809103902060009054906101000a900460ff1615151415611a92577ff9fbd55454309325ccadd998a641a1dfe7cd888eea26c0ae93b95992a13ac144604051611a8590613306565b60405180910390a1611d84565b60011515600260003373ffffffffffffffffffffffffffffffffffffffff1673ffffffffffffffffffffffffffffffffffffffff16815260200190815260200160002060009054906101000a900460ff16151514611b5a577ff9fbd55454309325ccadd998a641a1dfe7cd888eea26c0ae93b95992a13ac144604051611b1790613372565b60405180910390a16040517f08c379a0000000000000000000000000000000000000000000000000000000008152600401611b5190613372565b60405180910390fd5b6001600484604051611b6c9190612bdb565b908152602001604051809103902060006101000a81548160ff021916908315150217905550611b99611f9f565b82816000018190525033816020019073ffffffffffffffffffffffffffffffffffffffff16908173ffffffffffffffffffffffffffffffffffffffff1681525050612710444243604051602001611bf293929190612b02565b6040516020818303038152906040528051906020012060001c611c159190612b6e565b81604001818152505081816060018190525060405180602001604052806000815250816080018190525080600585604051611c509190612bdb565b90815260200160405180910390206000820151816000019080519060200190611c7a929190611ef8565b5060208201518160010160006101000a81548173ffffffffffffffffffffffffffffffffffffffff021916908373ffffffffffffffffffffffffffffffffffffffff160217905550604082015181600201556060820151816003019080519060200190611ce8929190611ef8565b506080820151816004019080519060200190611d05929190611ef8565b50905050600660003373ffffffffffffffffffffffffffffffffffffffff1673ffffffffffffffffffffffffffffffffffffffff16815260200190815260200160002084908060018154018082558091505060019003906000526020600020016000909190919091509080519060200190611d81929190611ef8565b50505b505050565b60008282604051602001611d9e929190612c5e565b60405160208183030381529060405280519060200120905092915050565b6060600582604051611dce9190612bdb565b90815260200160405180910390206000018054611dea90612913565b80601f0160208091040260200160405190810160405280929190818152602001828054611e1690612913565b8015611e635780601f10611e3857610100808354040283529160200191611e63565b820191906000526020600020905b815481529060010190602001808311611e4657829003601f168201915b50505050509050919050565b600081604051602001611e8291906133ff565b604051602081830303815290604052805190602001209050919050565b600081604051602001611eb29190612bdb565b6040516020818303038152906040528051906020012083604051602001611ed99190612bdb565b6040516020818303038152906040528051906020012014905092915050565b828054611f0490612913565b90600052602060002090601f016020900481019282611f265760008555611f6d565b82601f10611f3f57805160ff1916838001178555611f6d565b82800160010185558215611f6d579182015b82811115611f6c578251825591602001919060010190611f51565b5b509050611f7a9190611fe4565b5090565b60405180606001604052806060815260200160608152602001606081525090565b6040518060a0016040528060608152602001600073ffffffffffffffffffffffffffffffffffffffff1681526020016000815260200160608152602001606081525090565b5b80821115611ffd576000816000905550600101611fe5565b5090565b6000604051905090565b600080fd5b600080fd5b600080fd5b600080fd5b6000601f19601f8301169050919050565b7f4e487b7100000000000000000000000000000000000000000000000000000000600052604160045260246000fd5b6120688261201f565b810181811067ffffffffffffffff8211171561208757612086612030565b5b80604052505050565b600061209a612001565b90506120a6828261205f565b919050565b600067ffffffffffffffff8211156120c6576120c5612030565b5b6120cf8261201f565b9050602081019050919050565b82818337600083830152505050565b60006120fe6120f9846120ab565b612090565b90508281526020810184848401111561211a5761211961201a565b5b6121258482856120dc565b509392505050565b600082601f83011261214257612141612015565b5b81356121528482602086016120eb565b91505092915050565b6000602082840312156121715761217061200b565b5b600082013567ffffffffffffffff81111561218f5761218e612010565b5b61219b8482850161212d565b91505092915050565b600081519050919050565b600082825260208201905092915050565b60005b838110156121de5780820151818401526020810190506121c3565b838111156121ed576000848401525b50505050565b60006121fe826121a4565b61220881856121af565b93506122188185602086016121c0565b6122218161201f565b840191505092915050565b6000819050919050565b61223f8161222c565b82525050565b6000604082019050818103600083015261225f81856121f3565b905061226e6020830184612236565b9392505050565b600060208201905061228a6000830184612236565b92915050565b600067ffffffffffffffff8211156122ab576122aa612030565b5b6122b48261201f565b9050602081019050919050565b60006122d46122cf84612290565b612090565b9050828152602081018484840111156122f0576122ef61201a565b5b6122fb8482856120dc565b509392505050565b600082601f83011261231857612317612015565b5b81356123288482602086016122c1565b91505092915050565b6000819050919050565b61234481612331565b811461234f57600080fd5b50565b6000813590506123618161233b565b92915050565b6000806040838503121561237e5761237d61200b565b5b600083013567ffffffffffffffff81111561239c5761239b612010565b5b6123a885828601612303565b92505060206123b985828601612352565b9150509250929050565b60008115159050919050565b6123d8816123c3565b82525050565b60006020820190506123f360008301846123cf565b92915050565b600080604083850312156124105761240f61200b565b5b600083013567ffffffffffffffff81111561242e5761242d612010565b5b61243a8582860161212d565b925050602083013567ffffffffffffffff81111561245b5761245a612010565b5b61246785828601612303565b9150509250929050565b61247a8161222c565b811461248557600080fd5b50565b60008135905061249781612471565b92915050565b6000602082840312156124b3576124b261200b565b5b60006124c184828501612488565b91505092915050565b600060208201905081810360008301526124e481846121f3565b905092915050565b600080604083850312156125035761250261200b565b5b600061251185828601612352565b925050602083013567ffffffffffffffff81111561253257612531612010565b5b61253e85828601612303565b9150509250929050565b600073ffffffffffffffffffffffffffffffffffffffff82169050919050565b600061257382612548565b9050919050565b61258381612568565b82525050565b600060208201905061259e600083018461257a565b92915050565b6000602082840312156125ba576125b961200b565b5b600082013567ffffffffffffffff8111156125d8576125d7612010565b5b6125e484828501612303565b91505092915050565b600080604083850312156126045761260361200b565b5b600083013567ffffffffffffffff81111561262257612621612010565b5b61262e8582860161212d565b925050602083013567ffffffffffffffff81111561264f5761264e612010565b5b61265b8582860161212d565b9150509250929050565b61266e81612331565b82525050565b600060ff82169050919050565b61268a81612674565b82525050565b60006060820190506126a56000830186612665565b6126b26020830185612665565b6126bf6040830184612681565b949350505050565b600060408201905081810360008301526126e181856121f3565b905081810360208301526126f581846121f3565b90509392505050565b6000806000606084860312156127175761271661200b565b5b600084013567ffffffffffffffff81111561273557612734612010565b5b6127418682870161212d565b935050602084013567ffffffffffffffff81111561276257612761612010565b5b61276e8682870161212d565b925050604084013567ffffffffffffffff81111561278f5761278e612010565b5b61279b8682870161212d565b9150509250925092565b600080604083850312156127bc576127bb61200b565b5b600083013567ffffffffffffffff8111156127da576127d9612010565b5b6127e68582860161212d565b92505060206127f785828601612488565b9150509250929050565b60006020820190506128166000830184612665565b92915050565b6000602082840312156128325761283161200b565b5b600061284084828501612352565b91505092915050565b7f47617465776179206e6f7420726567697374657265642e2e2e00000000000000600082015250565b600061287f6019836121af565b915061288a82612849565b602082019050919050565b600060208201905081810360008301526128ae81612872565b9050919050565b7f4e487b7100000000000000000000000000000000000000000000000000000000600052603260045260246000fd5b7f4e487b7100000000000000000000000000000000000000000000000000000000600052602260045260246000fd5b6000600282049050600182168061292b57607f821691505b6020821081141561293f5761293e6128e4565b5b50919050565b7f4e487b7100000000000000000000000000000000000000000000000000000000600052601160045260246000fd5b600061297f8261222c565b91507fffffffffffffffffffffffffffffffffffffffffffffffffffffffffffffffff8214156129b2576129b1612945565b5b600182019050919050565b7f446576696365206e6f74206173736f636961746564207769746820746869732060008201527f676174657761792e2e2e2e000000000000000000000000000000000000000000602082015250565b6000612a19602b836121af565b9150612a24826129bd565b604082019050919050565b60006020820190508181036000830152612a4881612a0c565b9050919050565b7f446576696365206e6f74206173736f636961746564207769746820746869732060008201527f676174657761792e2e2e00000000000000000000000000000000000000000000602082015250565b6000612aab602a836121af565b9150612ab682612a4f565b604082019050919050565b60006020820190508181036000830152612ada81612a9e565b9050919050565b6000819050919050565b612afc612af78261222c565b612ae1565b82525050565b6000612b0e8286612aeb565b602082019150612b1e8285612aeb565b602082019150612b2e8284612aeb565b602082019150819050949350505050565b7f4e487b7100000000000000000000000000000000000000000000000000000000600052601260045260246000fd5b6000612b798261222c565b9150612b848361222c565b925082612b9457612b93612b3f565b5b828206905092915050565b600081905092915050565b6000612bb5826121a4565b612bbf8185612b9f565b9350612bcf8185602086016121c0565b80840191505092915050565b6000612be78284612baa565b915081905092915050565b7f4e6f6e6365207375636365737366756c6c7920757064617465642e2e2e000000600082015250565b6000612c28601d836121af565b9150612c3382612bf2565b602082019050919050565b60006020820190508181036000830152612c5781612c1b565b9050919050565b6000612c6a8285612baa565b9150612c768284612aeb565b6020820191508190509392505050565b7f796f000000000000000000000000000000000000000000000000000000000000600082015250565b6000612cbc600283612b9f565b9150612cc782612c86565b600282019050919050565b6000612cdd82612caf565b9150819050919050565b60008190508160005260206000209050919050565b60008154612d0981612913565b612d138186612b9f565b94506001821660008114612d2e5760018114612d3f57612d72565b60ff19831686528186019350612d72565b612d4885612ce7565b60005b83811015612d6a57815481890152600182019150602081019050612d4b565b838801955050505b50505092915050565b6000612d878284612cfc565b915081905092915050565b7f596179792c206572726f72206f63757272656400000000000000000000000000600082015250565b6000612dc86013836121af565b9150612dd382612d92565b602082019050919050565b60006020820190508181036000830152612df781612dbb565b9050919050565b7f566572696669636174696f6e2073756363657373202d20537472696e6720757060008201527f6461746564000000000000000000000000000000000000000000000000000000602082015250565b6000612e5a6025836121af565b9150612e6582612dfe565b604082019050919050565b60006020820190508181036000830152612e8981612e4d565b9050919050565b7f566572696669636174696f6e206661696c6564202d20537472696e67206e6f7460008201527f2075706461746564000000000000000000000000000000000000000000000000602082015250565b6000612eec6028836121af565b9150612ef782612e90565b604082019050919050565b60006020820190508181036000830152612f1b81612edf565b9050919050565b60008154612f2f81612913565b612f3981866121af565b94506001821660008114612f545760018114612f6657612f99565b60ff1983168652602086019350612f99565b612f6f85612ce7565b60005b83811015612f9157815481890152600182019150602081019050612f72565b808801955050505b50505092915050565b60006020820190508181036000830152612fbc8184612f22565b905092915050565b6000608082019050612fd96000830187612665565b612fe66020830186612681565b612ff36040830185612665565b6130006060830184612665565b95945050505050565b7f416c726561647920726567697374657265642e2e2e0000000000000000000000600082015250565b600061303f6015836121af565b915061304a82613009565b602082019050919050565b6000602082019050818103600083015261306e81613032565b9050919050565b7f5265676973746572000000000000000000000000000000000000000000000000600082015250565b60006130ab600883612b9f565b91506130b682613075565b600882019050919050565b60006130cc8261309e565b9150819050919050565b7f526567697374726174696f6e206661696c65642e2e2e00000000000000000000600082015250565b600061310c6016836121af565b9150613117826130d6565b602082019050919050565b6000602082019050818103600083015261313b816130ff565b9050919050565b7f54696d657374616d7020757064617465642e2e2e000000000000000000000000600082015250565b60006131786014836121af565b915061318382613142565b602082019050919050565b600060208201905081810360008301526131a78161316b565b9050919050565b7f696e76616c6964207369676e6174757265206c656e6774680000000000000000600082015250565b60006131e46018836121af565b91506131ef826131ae565b602082019050919050565b60006020820190508181036000830152613213816131d7565b9050919050565b7f526563697069656e7420757064617465642e2e2e000000000000000000000000600082015250565b60006132506014836121af565b915061325b8261321a565b602082019050919050565b6000602082019050818103600083015261327f81613243565b9050919050565b60006132918261222c565b915061329c8361222c565b9250828210156132af576132ae612945565b5b828203905092915050565b7f44657669636520616c726561647920726567697374657265642e2e2e00000000600082015250565b60006132f0601c836121af565b91506132fb826132ba565b602082019050919050565b6000602082019050818103600083015261331f816132e3565b9050919050565b7f47617465776179206e6f74207265676973746572656400000000000000000000600082015250565b600061335c6016836121af565b915061336782613326565b602082019050919050565b6000602082019050818103600083015261338b8161334f565b9050919050565b7f19457468657265756d205369676e6564204d6573736167653a0a333200000000600082015250565b60006133c8601c83612b9f565b91506133d382613392565b601c82019050919050565b6000819050919050565b6133f96133f482612331565b6133de565b82525050565b600061340a826133bb565b915061341682846133e8565b6020820191508190509291505056fea2646970667358221220f17082e8c8c127fe08687b98e7865e667f23bb58b93f8a72aedfcbab140c52d564736f6c634300080a0033",
  "immutableReferences": {},
  "source": "// SPDX-License-Identifier: .\r\npragma solidity ^0.8.10;\r\n\r\ncontract Sample {\r\n    ///Blockchain state variables.\r\n\r\n    /* 'number' and 'str' are test variables */\r\n    uint public number = 10;\r\n    string public str = \"Hello\";\r\n\r\n    // 'reg' is mapping which stores whether a gateway has registered or not.\r\n    mapping(address => bool) reg;\r\n    // 'nonces' is a mapping which stores nonces for each registered gateway and changes with transaction.\r\n    mapping(address => uint) nonces;\r\n    //This mapping stores whether the dev has been registered or not.\r\n    mapping(string => bool) dev_reg;\r\n\r\n    //This structure contains the device information.\r\n    struct Device {\r\n        string pubKey;\r\n        address gate;\r\n        uint nonce;\r\n        string TS;\r\n        string recvId;\r\n    }\r\n\r\n    //Maps from the device id to device information which is contained in 'Device' struct.\r\n    mapping(string => Device) dev_info;\r\n    mapping(address => string[]) gate_dev;\r\n    \r\n\r\n    //The messsages associated with the gateway are stored in this data structure.\r\n    struct Message {\r\n        string from;\r\n        string to;\r\n        string msg_str;\r\n    }    \r\n    mapping(address => Message[]) msgs;\r\n\r\n    //Test event to listen to in the script.\r\n    event test(string _str);  \r\n    \r\n    //This is the event which the gateway listens for any notification of messages.\r\n    event receive_message(address indexed gateway, string devId);\r\n\r\n    //Utility function\r\n    function str_cmp(string memory _a, string memory _b) internal pure returns(bool fl){\r\n        return keccak256(abi.encodePacked(_a)) == keccak256(abi.encodePacked(_b));\r\n    }      \r\n\r\n    /*The below 3 functions are test functions.*/\r\n\r\n\r\n    //Multiple value return.\r\n    function without_parameters() public view returns (string memory str1, uint num1) {\r\n            return (str, number);\r\n    }\r\n\r\n    //Directly update the number by 'n'.\r\n    function update(uint _n) public {\r\n            number = _n;            \r\n    } \r\n\r\n    //Test transaction to check working with signature.\r\n    function update_string(string memory _str, bytes memory signature) public {\r\n        \r\n        bytes32 messageHash = keccak256(abi.encodePacked(_str, nonces[msg.sender]));\r\n        bool status = verify(signature, messageHash);\r\n        if(status == true)\r\n        {\r\n            if(keccak256(abi.encodePacked(str)) == keccak256(abi.encodePacked(\"yo\")))\r\n            revert(\"Yayy, error ocurred\");\r\n            str = _str;\r\n            nonces[msg.sender] = uint(keccak256(abi.encodePacked(block.difficulty, block.timestamp, block.number)))%10000;\r\n            emit test(\"Verification success - String updated\");\r\n        }\r\n        else\r\n            emit test(\"Verification failed - String not updated\");\r\n\r\n        emit test(str);\r\n    }       \r\n    \r\n    //Function to retrieve nonce.\r\n    function getNonce() public view returns(uint nonce) {\r\n        if(reg[msg.sender] == true)\r\n            return nonces[msg.sender];\r\n        else\r\n            return 0;\r\n    }\r\n\r\n    function register_gateway(bytes memory signature) public {\r\n        \r\n        if(reg[msg.sender] == true)\r\n            emit test(\"Already registered...\");\r\n        else{\r\n            bytes32 messageHash = keccak256(abi.encodePacked('Register'));\r\n            bool status = verify(signature, messageHash);\r\n            if(status == true)\r\n            {\r\n                //That means the signature has been verified.\r\n                reg[msg.sender] = true;\r\n                nonces[msg.sender] = uint(keccak256(abi.encodePacked(block.difficulty, block.timestamp, block.number)))%10000;\r\n            }        \r\n            else\r\n            {\r\n                revert(\"Registration failed...\");\r\n            }\r\n        }\r\n    }\r\n\r\n    function register_device(string memory _devId, string memory _pub, string memory _TS) public {\r\n        \r\n        if(dev_reg[_devId] == true)\r\n            emit test(\"Device already registered...\");\r\n\r\n        else if(reg[msg.sender] != true){\r\n            emit test(\"Gateway not registered\");\r\n            revert(\"Gateway not registered\");\r\n        }\r\n        else{                        \r\n            //Since the status has been verified, things to do are:\r\n            //1. Mark the device as registered.\r\n            dev_reg[_devId] = true;\r\n            //2. Create a new struct with the information.\r\n            Device memory dev;\r\n            dev.pubKey = _pub;\r\n            dev.gate = msg.sender;\r\n            dev.nonce = uint(keccak256(abi.encodePacked(block.difficulty, block.timestamp, block.number)))%10000;\r\n            dev.TS = _TS;\r\n            dev.recvId = \"\";\r\n            //3. Map the device id to the created struct.\r\n            dev_info[_devId] = dev;\r\n\r\n            //4. Also add the device id to the list of devices under the associated gatewyay.  \r\n            gate_dev[msg.sender].push(_devId);                                  \r\n        }\r\n    }\r\n\r\n    //Function to check whether device has been registered or not. If yes, returns the timestamp of the last request.\r\n    function check_device(string memory _devId) public view returns(string memory){                \r\n        if (dev_reg[_devId])\r\n            return dev_info[_devId].TS;\r\n        else\r\n            return \"\";\r\n    }\r\n\r\n    function update_timestamp(string memory _devId, string memory _TS) public {\r\n        dev_info[_devId].TS = _TS;\r\n        emit test(\"Timestamp updated...\");\r\n    }\r\n\r\n    function get_device_key(string memory _devId) public view returns(string memory){                \r\n        return dev_info[_devId].pubKey;\r\n    }\r\n\r\n    function update_recipient(string memory _devId, string memory _recvId) public {\r\n        dev_info[_devId].recvId = _recvId;\r\n        emit test(\"Recipient updated...\");\r\n    }\r\n\r\n    function communicate(string memory _devId, string memory _msg) public {\r\n        \r\n        if(reg[msg.sender] != true)\r\n        {\r\n            emit test(\"Gateway not registered...\");\r\n            revert(\"Gateway not registered...\");\r\n        }\r\n        \r\n        bool fl = false;\r\n        for(uint i=0;i<gate_dev[msg.sender].length;i++)\r\n        {\r\n            fl = str_cmp(_devId, gate_dev[msg.sender][i]);\r\n            if(fl)\r\n                break;\r\n        }\r\n\r\n        if(!fl)\r\n        {\r\n            emit test(\"Device not associated with this gateway....\");\r\n            revert(\"Device not associated with this gateway...\");\r\n        }\r\n\r\n        string memory _recvId = dev_info[_devId].recvId;\r\n        //Now add the message under this gateway and emit the event.\r\n        Message memory message;\r\n        message.from = _devId;\r\n        message.to = _recvId;\r\n        message.msg_str = _msg;\r\n\r\n        //Add to the list of messages for the gateway.\r\n        msgs[dev_info[_recvId].gate].push(message);\r\n\r\n        //Clear the recipient id under the dev_info.\r\n        dev_info[_devId].recvId = \"\";\r\n\r\n        emit receive_message(dev_info[_recvId].gate, _recvId);\r\n    }\r\n\r\n    function getMessage() public view returns (string memory from, string memory _str){\r\n        \r\n        uint n = msgs[msg.sender].length;\r\n        return (msgs[msg.sender][n-1].from, msgs[msg.sender][n-1].msg_str);\r\n    }\r\n\r\n\r\n    //The gateway updates the nonce of the device after every authentication attempt.\r\n    function update_device_nonce(string memory _devId) public {\r\n        //Check whether the gateway is registered.\r\n        //Also check whether the device is under this gateway.\r\n        if(reg[msg.sender] != true)\r\n        {\r\n            emit test(\"Gateway not registered...\");\r\n            revert(\"Gateway not registered...\");\r\n        }\r\n        \r\n        bool fl = false;\r\n        for(uint i=0;i<gate_dev[msg.sender].length;i++)\r\n        {\r\n            fl = str_cmp(_devId, gate_dev[msg.sender][i]);\r\n            if(fl)\r\n                break;\r\n        }\r\n\r\n        if(!fl)\r\n        {\r\n            emit test(\"Device not associated with this gateway....\");\r\n            revert(\"Device not associated with this gateway...\");\r\n        }    \r\n        \r\n        //Add a nonce for the device here.\r\n        dev_info[_devId].nonce = uint(keccak256(abi.encodePacked(block.difficulty, block.timestamp, block.number)))%10000;   \r\n        emit test(\"Nonce successfully updated...\");\r\n    }\r\n\r\n    function get_device_nonce(string memory _devId) public view returns(uint nonce){\r\n        //Check whether the gateway is registered.\r\n        //Also check whether the device is under this gateway.\r\n        if(reg[msg.sender] != true)                   \r\n            return 0;                    \r\n        \r\n        bool fl = false;\r\n        for(uint i=0;i<gate_dev[msg.sender].length;i++)\r\n        {\r\n            fl = str_cmp(_devId, gate_dev[msg.sender][i]);\r\n            if(fl)\r\n                break;\r\n        }\r\n\r\n        if(!fl)                    \r\n            return 0;           \r\n        \r\n        //Return nonce for the device here.\r\n        return dev_info[_devId].nonce;               \r\n    }\r\n    \r\n\r\n\r\n\r\n\r\n    function verify(\r\n        bytes memory signature,\r\n        bytes32 messageHash        \r\n    ) public view returns (bool) {        \r\n        bytes32 ethSignedMessageHash = getEthSignedMessageHash(messageHash);\r\n\r\n        return recoverSigner(ethSignedMessageHash, signature) == msg.sender;\r\n    }\r\n\r\n    function getMessageHash(        \r\n        string memory _message ,\r\n        uint _nonce       \r\n    ) public pure returns (bytes32) {\r\n        return keccak256(abi.encodePacked(_message, _nonce));\r\n    }\r\n\r\n    function getEthSignedMessageHash(bytes32 _messageHash)\r\n        public\r\n        pure\r\n        returns (bytes32)\r\n    {\r\n        /*\r\n        Signature is produced by signing a keccak256 hash with the following format:\r\n        \"\\x19Ethereum Signed Message\\n\" + len(msg) + msg\r\n        */\r\n        return\r\n            keccak256(\r\n                abi.encodePacked(\"\\x19Ethereum Signed Message:\\n32\", _messageHash)\r\n            );\r\n    }\r\n\r\n    function recoverSigner(bytes32 _ethSignedMessageHash, bytes memory _signature)\r\n        public\r\n        pure\r\n        returns (address)\r\n    {\r\n        (bytes32 r, bytes32 s, uint8 v) = splitSignature(_signature);\r\n\r\n        return ecrecover(_ethSignedMessageHash, v, r, s);\r\n    }\r\n\r\n    function splitSignature(bytes memory sig)\r\n        public\r\n        pure\r\n        returns (\r\n            bytes32 r,\r\n            bytes32 s,\r\n            uint8 v\r\n        )\r\n    {\r\n        require(sig.length == 65, \"invalid signature length\");\r\n\r\n        assembly {\r\n            /*\r\n            First 32 bytes stores the length of the signature\r\n\r\n            add(sig, 32) = pointer of sig + 32\r\n            effectively, skips first 32 bytes of signature\r\n\r\n            mload(p) loads next 32 bytes starting at the memory address p into memory\r\n            */\r\n\r\n            // first 32 bytes, after the length prefix\r\n            r := mload(add(sig, 32))\r\n            // second 32 bytes\r\n            s := mload(add(sig, 64))\r\n            // final byte (first byte of the next 32 bytes)\r\n            v := byte(0, mload(add(sig, 96)))\r\n        }\r\n\r\n        // implicitly return (r, s, v)\r\n    }\r\n}",
  "sourcePath": "D:\\Semester 4-1\\Final year project\\fyp\\contracts\\Sample.sol",
  "compiler": {
    "name": "solc",
    "version": "0.8.10+commit.fc410830.Emscripten.clang"
  },
  "schemaVersion": "3.4.4",
  "updatedAt": "2022-04-03T12:25:50.249Z",
  "networkType": "ethereum",
  "devdoc": {
    "kind": "dev",
    "methods": {},
    "version": 1
  },
  "userdoc": {
    "kind": "user",
    "methods": {
      "number()": {
        "notice": "Blockchain state variables."
      }
    },
    "version": 1
  }
}