{
  "contractName": "Sample",
  "abi": [
    {
      "anonymous": false,
      "inputs": [
        {
          "indexed": false,
          "internalType": "string",
          "name": "_str",
          "type": "string"
        }
      ],
      "name": "test",
      "type": "event"
    },
    {
      "inputs": [],
      "name": "number",
      "outputs": [
        {
          "internalType": "uint256",
          "name": "",
          "type": "uint256"
        }
      ],
      "stateMutability": "view",
      "type": "function",
      "constant": true
    },
    {
      "inputs": [],
      "name": "str",
      "outputs": [
        {
          "internalType": "string",
          "name": "",
          "type": "string"
        }
      ],
      "stateMutability": "view",
      "type": "function",
      "constant": true
    },
    {
      "inputs": [],
      "name": "without_parameters",
      "outputs": [
        {
          "internalType": "string",
          "name": "str1",
          "type": "string"
        },
        {
          "internalType": "uint256",
          "name": "num1",
          "type": "uint256"
        }
      ],
      "stateMutability": "view",
      "type": "function",
      "constant": true
    },
    {
      "inputs": [
        {
          "internalType": "uint256",
          "name": "_n",
          "type": "uint256"
        }
      ],
      "name": "update",
      "outputs": [],
      "stateMutability": "nonpayable",
      "type": "function"
    },
    {
      "inputs": [
        {
          "internalType": "string",
          "name": "_str",
          "type": "string"
        },
        {
          "internalType": "bytes",
          "name": "signature",
          "type": "bytes"
        }
      ],
      "name": "update_string",
      "outputs": [],
      "stateMutability": "nonpayable",
      "type": "function"
    },
    {
      "inputs": [],
      "name": "getNonce",
      "outputs": [
        {
          "internalType": "uint256",
          "name": "nonce",
          "type": "uint256"
        }
      ],
      "stateMutability": "view",
      "type": "function",
      "constant": true
    },
    {
      "inputs": [
        {
          "internalType": "bytes",
          "name": "signature",
          "type": "bytes"
        }
      ],
      "name": "register_gateway",
      "outputs": [],
      "stateMutability": "nonpayable",
      "type": "function"
    },
    {
      "inputs": [
        {
          "internalType": "bytes",
          "name": "signature",
          "type": "bytes"
        },
        {
          "internalType": "bytes32",
          "name": "messageHash",
          "type": "bytes32"
        }
      ],
      "name": "verify",
      "outputs": [
        {
          "internalType": "bool",
          "name": "",
          "type": "bool"
        }
      ],
      "stateMutability": "view",
      "type": "function",
      "constant": true
    },
    {
      "inputs": [
        {
          "internalType": "string",
          "name": "_message",
          "type": "string"
        },
        {
          "internalType": "uint256",
          "name": "_nonce",
          "type": "uint256"
        }
      ],
      "name": "getMessageHash",
      "outputs": [
        {
          "internalType": "bytes32",
          "name": "",
          "type": "bytes32"
        }
      ],
      "stateMutability": "pure",
      "type": "function",
      "constant": true
    },
    {
      "inputs": [
        {
          "internalType": "bytes32",
          "name": "_messageHash",
          "type": "bytes32"
        }
      ],
      "name": "getEthSignedMessageHash",
      "outputs": [
        {
          "internalType": "bytes32",
          "name": "",
          "type": "bytes32"
        }
      ],
      "stateMutability": "pure",
      "type": "function",
      "constant": true
    },
    {
      "inputs": [
        {
          "internalType": "bytes32",
          "name": "_ethSignedMessageHash",
          "type": "bytes32"
        },
        {
          "internalType": "bytes",
          "name": "_signature",
          "type": "bytes"
        }
      ],
      "name": "recoverSigner",
      "outputs": [
        {
          "internalType": "address",
          "name": "",
          "type": "address"
        }
      ],
      "stateMutability": "pure",
      "type": "function",
      "constant": true
    },
    {
      "inputs": [
        {
          "internalType": "bytes",
          "name": "sig",
          "type": "bytes"
        }
      ],
      "name": "splitSignature",
      "outputs": [
        {
          "internalType": "bytes32",
          "name": "r",
          "type": "bytes32"
        },
        {
          "internalType": "bytes32",
          "name": "s",
          "type": "bytes32"
        },
        {
          "internalType": "uint8",
          "name": "v",
          "type": "uint8"
        }
      ],
      "stateMutability": "pure",
      "type": "function",
      "constant": true
    }
  ],
  "bytecode": "0x6080604052600a6000556040518060400160405280600581526020017f48656c6c6f00000000000000000000000000000000000000000000000000000081525060019080519060200190620000569291906200006b565b503480156200006457600080fd5b5062000180565b82805462000079906200014a565b90600052602060002090601f0160209004810192826200009d5760008555620000e9565b82601f10620000b857805160ff1916838001178555620000e9565b82800160010185558215620000e9579182015b82811115620000e8578251825591602001919060010190620000cb565b5b509050620000f89190620000fc565b5090565b5b8082111562000117576000816000905550600101620000fd565b5090565b7f4e487b7100000000000000000000000000000000000000000000000000000000600052602260045260246000fd5b600060028204905060018216806200016357607f821691505b602082108114156200017a57620001796200011b565b5b50919050565b6118ec80620001906000396000f3fe608060405234801561001057600080fd5b50600436106100b45760003560e01c8063a0c265f811610071578063a0c265f81461018e578063a7bb5803146101aa578063c15bae84146101dc578063d087d288146101fa578063d4aa691614610218578063fa54080114610248576100b4565b80634ea36e32146100b95780636b406341146100d85780637737879f1461010857806382ab890a146101245780638381f58a1461014057806397aba7f91461015e575b600080fd5b6100c1610278565b6040516100cf929190610b81565b60405180910390f35b6100f260048036038101906100ed9190610d30565b610315565b6040516100ff9190610da7565b60405180910390f35b610122600480360381019061011d9190610e63565b610364565b005b61013e60048036038101906101399190610f07565b6105bc565b005b6101486105c6565b6040516101559190610f34565b60405180910390f35b61017860048036038101906101739190610f4f565b6105cc565b6040516101859190610fec565b60405180910390f35b6101a860048036038101906101a39190611007565b61063b565b005b6101c460048036038101906101bf9190611007565b610829565b6040516101d39392919061107b565b60405180910390f35b6101e4610891565b6040516101f191906110b2565b60405180910390f35b61020261091f565b60405161020f9190610f34565b60405180910390f35b610232600480360381019061022d91906110d4565b6109c9565b60405161023f9190611130565b60405180910390f35b610262600480360381019061025d919061114b565b6109fc565b60405161026f9190611130565b60405180910390f35b60606000600160005481805461028d906111a7565b80601f01602080910402602001604051908101604052809291908181526020018280546102b9906111a7565b80156103065780601f106102db57610100808354040283529160200191610306565b820191906000526020600020905b8154815290600101906020018083116102e957829003601f168201915b50505050509150915091509091565b600080610321836109fc565b90503373ffffffffffffffffffffffffffffffffffffffff1661034482866105cc565b73ffffffffffffffffffffffffffffffffffffffff161491505092915050565b600082600360003373ffffffffffffffffffffffffffffffffffffffff1673ffffffffffffffffffffffffffffffffffffffff168152602001908152602001600020546040516020016103b8929190611236565b60405160208183030381529060405280519060200120905060006103dc8383610315565b9050600115158115151415610548576040516020016103fa906112aa565b6040516020818303038152906040528051906020012060016040516020016104229190611353565b604051602081830303815290604052805190602001201415610479576040517f08c379a0000000000000000000000000000000000000000000000000000000008152600401610470906113b6565b60405180910390fd5b836001908051906020019061048f929190610a2c565b506127104442436040516020016104a8939291906113d6565b6040516020818303038152906040528051906020012060001c6104cb9190611442565b600360003373ffffffffffffffffffffffffffffffffffffffff1673ffffffffffffffffffffffffffffffffffffffff168152602001908152602001600020819055507ff9fbd55454309325ccadd998a641a1dfe7cd888eea26c0ae93b95992a13ac14460405161053b906114e5565b60405180910390a161057e565b7ff9fbd55454309325ccadd998a641a1dfe7cd888eea26c0ae93b95992a13ac14460405161057590611577565b60405180910390a15b7ff9fbd55454309325ccadd998a641a1dfe7cd888eea26c0ae93b95992a13ac14460016040516105ae9190611617565b60405180910390a150505050565b8060008190555050565b60005481565b6000806000806105db85610829565b925092509250600186828585604051600081526020016040526040516106049493929190611639565b6020604051602081039080840390855afa158015610626573d6000803e3d6000fd5b50505060206040510351935050505092915050565b60011515600260003373ffffffffffffffffffffffffffffffffffffffff1673ffffffffffffffffffffffffffffffffffffffff16815260200190815260200160002060009054906101000a900460ff16151514156106ca577ff9fbd55454309325ccadd998a641a1dfe7cd888eea26c0ae93b95992a13ac1446040516106c1906116ca565b60405180910390a15b60006040516020016106db90611736565b60405160208183030381529060405280519060200120905060006106ff8383610315565b90506001151581151514156107e9576001600260003373ffffffffffffffffffffffffffffffffffffffff1673ffffffffffffffffffffffffffffffffffffffff16815260200190815260200160002060006101000a81548160ff02191690831515021790555061271044424360405160200161077e939291906113d6565b6040516020818303038152906040528051906020012060001c6107a19190611442565b600360003373ffffffffffffffffffffffffffffffffffffffff1673ffffffffffffffffffffffffffffffffffffffff16815260200190815260200160002081905550610824565b6040517f08c379a000000000000000000000000000000000000000000000000000000000815260040161081b90611797565b60405180910390fd5b505050565b60008060006041845114610872576040517f08c379a000000000000000000000000000000000000000000000000000000000815260040161086990611803565b60405180910390fd5b6020840151925060408401519150606084015160001a90509193909250565b6001805461089e906111a7565b80601f01602080910402602001604051908101604052809291908181526020018280546108ca906111a7565b80156109175780601f106108ec57610100808354040283529160200191610917565b820191906000526020600020905b8154815290600101906020018083116108fa57829003601f168201915b505050505081565b600060011515600260003373ffffffffffffffffffffffffffffffffffffffff1673ffffffffffffffffffffffffffffffffffffffff16815260200190815260200160002060009054906101000a900460ff16151514156109c157600360003373ffffffffffffffffffffffffffffffffffffffff1673ffffffffffffffffffffffffffffffffffffffff1681526020019081526020016000205490506109c6565b600090505b90565b600082826040516020016109de929190611236565b60405160208183030381529060405280519060200120905092915050565b600081604051602001610a0f9190611890565b604051602081830303815290604052805190602001209050919050565b828054610a38906111a7565b90600052602060002090601f016020900481019282610a5a5760008555610aa1565b82601f10610a7357805160ff1916838001178555610aa1565b82800160010185558215610aa1579182015b82811115610aa0578251825591602001919060010190610a85565b5b509050610aae9190610ab2565b5090565b5b80821115610acb576000816000905550600101610ab3565b5090565b600081519050919050565b600082825260208201905092915050565b60005b83811015610b09578082015181840152602081019050610aee565b83811115610b18576000848401525b50505050565b6000601f19601f8301169050919050565b6000610b3a82610acf565b610b448185610ada565b9350610b54818560208601610aeb565b610b5d81610b1e565b840191505092915050565b6000819050919050565b610b7b81610b68565b82525050565b60006040820190508181036000830152610b9b8185610b2f565b9050610baa6020830184610b72565b9392505050565b6000604051905090565b600080fd5b600080fd5b600080fd5b600080fd5b7f4e487b7100000000000000000000000000000000000000000000000000000000600052604160045260246000fd5b610c0782610b1e565b810181811067ffffffffffffffff82111715610c2657610c25610bcf565b5b80604052505050565b6000610c39610bb1565b9050610c458282610bfe565b919050565b600067ffffffffffffffff821115610c6557610c64610bcf565b5b610c6e82610b1e565b9050602081019050919050565b82818337600083830152505050565b6000610c9d610c9884610c4a565b610c2f565b905082815260208101848484011115610cb957610cb8610bca565b5b610cc4848285610c7b565b509392505050565b600082601f830112610ce157610ce0610bc5565b5b8135610cf1848260208601610c8a565b91505092915050565b6000819050919050565b610d0d81610cfa565b8114610d1857600080fd5b50565b600081359050610d2a81610d04565b92915050565b60008060408385031215610d4757610d46610bbb565b5b600083013567ffffffffffffffff811115610d6557610d64610bc0565b5b610d7185828601610ccc565b9250506020610d8285828601610d1b565b9150509250929050565b60008115159050919050565b610da181610d8c565b82525050565b6000602082019050610dbc6000830184610d98565b92915050565b600067ffffffffffffffff821115610ddd57610ddc610bcf565b5b610de682610b1e565b9050602081019050919050565b6000610e06610e0184610dc2565b610c2f565b905082815260208101848484011115610e2257610e21610bca565b5b610e2d848285610c7b565b509392505050565b600082601f830112610e4a57610e49610bc5565b5b8135610e5a848260208601610df3565b91505092915050565b60008060408385031215610e7a57610e79610bbb565b5b600083013567ffffffffffffffff811115610e9857610e97610bc0565b5b610ea485828601610e35565b925050602083013567ffffffffffffffff811115610ec557610ec4610bc0565b5b610ed185828601610ccc565b9150509250929050565b610ee481610b68565b8114610eef57600080fd5b50565b600081359050610f0181610edb565b92915050565b600060208284031215610f1d57610f1c610bbb565b5b6000610f2b84828501610ef2565b91505092915050565b6000602082019050610f496000830184610b72565b92915050565b60008060408385031215610f6657610f65610bbb565b5b6000610f7485828601610d1b565b925050602083013567ffffffffffffffff811115610f9557610f94610bc0565b5b610fa185828601610ccc565b9150509250929050565b600073ffffffffffffffffffffffffffffffffffffffff82169050919050565b6000610fd682610fab565b9050919050565b610fe681610fcb565b82525050565b60006020820190506110016000830184610fdd565b92915050565b60006020828403121561101d5761101c610bbb565b5b600082013567ffffffffffffffff81111561103b5761103a610bc0565b5b61104784828501610ccc565b91505092915050565b61105981610cfa565b82525050565b600060ff82169050919050565b6110758161105f565b82525050565b60006060820190506110906000830186611050565b61109d6020830185611050565b6110aa604083018461106c565b949350505050565b600060208201905081810360008301526110cc8184610b2f565b905092915050565b600080604083850312156110eb576110ea610bbb565b5b600083013567ffffffffffffffff81111561110957611108610bc0565b5b61111585828601610e35565b925050602061112685828601610ef2565b9150509250929050565b60006020820190506111456000830184611050565b92915050565b60006020828403121561116157611160610bbb565b5b600061116f84828501610d1b565b91505092915050565b7f4e487b7100000000000000000000000000000000000000000000000000000000600052602260045260246000fd5b600060028204905060018216806111bf57607f821691505b602082108114156111d3576111d2611178565b5b50919050565b600081905092915050565b60006111ef82610acf565b6111f981856111d9565b9350611209818560208601610aeb565b80840191505092915050565b6000819050919050565b61123061122b82610b68565b611215565b82525050565b600061124282856111e4565b915061124e828461121f565b6020820191508190509392505050565b7f796f000000000000000000000000000000000000000000000000000000000000600082015250565b60006112946002836111d9565b915061129f8261125e565b600282019050919050565b60006112b582611287565b9150819050919050565b60008190508160005260206000209050919050565b600081546112e1816111a7565b6112eb81866111d9565b9450600182166000811461130657600181146113175761134a565b60ff1983168652818601935061134a565b611320856112bf565b60005b8381101561134257815481890152600182019150602081019050611323565b838801955050505b50505092915050565b600061135f82846112d4565b915081905092915050565b7f596179792c206572726f72206f63757272656400000000000000000000000000600082015250565b60006113a0601383610ada565b91506113ab8261136a565b602082019050919050565b600060208201905081810360008301526113cf81611393565b9050919050565b60006113e2828661121f565b6020820191506113f2828561121f565b602082019150611402828461121f565b602082019150819050949350505050565b7f4e487b7100000000000000000000000000000000000000000000000000000000600052601260045260246000fd5b600061144d82610b68565b915061145883610b68565b92508261146857611467611413565b5b828206905092915050565b7f566572696669636174696f6e2073756363657373202d20537472696e6720757060008201527f6461746564000000000000000000000000000000000000000000000000000000602082015250565b60006114cf602583610ada565b91506114da82611473565b604082019050919050565b600060208201905081810360008301526114fe816114c2565b9050919050565b7f566572696669636174696f6e206661696c6564202d20537472696e67206e6f7460008201527f2075706461746564000000000000000000000000000000000000000000000000602082015250565b6000611561602883610ada565b915061156c82611505565b604082019050919050565b6000602082019050818103600083015261159081611554565b9050919050565b600081546115a4816111a7565b6115ae8186610ada565b945060018216600081146115c957600181146115db5761160e565b60ff198316865260208601935061160e565b6115e4856112bf565b60005b83811015611606578154818901526001820191506020810190506115e7565b808801955050505b50505092915050565b600060208201905081810360008301526116318184611597565b905092915050565b600060808201905061164e6000830187611050565b61165b602083018661106c565b6116686040830185611050565b6116756060830184611050565b95945050505050565b7f416c726561647920726567697374657265642e2e2e0000000000000000000000600082015250565b60006116b4601583610ada565b91506116bf8261167e565b602082019050919050565b600060208201905081810360008301526116e3816116a7565b9050919050565b7f5265676973746572000000000000000000000000000000000000000000000000600082015250565b60006117206008836111d9565b915061172b826116ea565b600882019050919050565b600061174182611713565b9150819050919050565b7f41757468656e7469636174696f6e206661696c65642e2e2e0000000000000000600082015250565b6000611781601883610ada565b915061178c8261174b565b602082019050919050565b600060208201905081810360008301526117b081611774565b9050919050565b7f696e76616c6964207369676e6174757265206c656e6774680000000000000000600082015250565b60006117ed601883610ada565b91506117f8826117b7565b602082019050919050565b6000602082019050818103600083015261181c816117e0565b9050919050565b7f19457468657265756d205369676e6564204d6573736167653a0a333200000000600082015250565b6000611859601c836111d9565b915061186482611823565b601c82019050919050565b6000819050919050565b61188a61188582610cfa565b61186f565b82525050565b600061189b8261184c565b91506118a78284611879565b6020820191508190509291505056fea26469706673582212200043dcdbed105c81616273dc706b6dcbe115252595aa950b3e75a21371df0ac164736f6c634300080a0033",
  "immutableReferences": {},
  "source": "// SPDX-License-Identifier: .\r\npragma solidity ^0.8.10;\r\n\r\ncontract Sample {\r\n    ///Blockchain state variables.\r\n\r\n    /* 'number' and 'str' are test variables */\r\n    uint public number = 10;\r\n    string public str = \"Hello\";\r\n\r\n    // 'reg' is mapping which stores whether a gateway has registered or not.\r\n    mapping(address => bool) reg;\r\n\r\n    // 'nonces' is a mapping which stores nonces for each registered gateway and changes with transaction.\r\n    mapping(address => uint) nonces;\r\n    \r\n    //Test event to listen to in the script.\r\n    event test(string _str);        \r\n\r\n    /*The below 3 functions are test functions.*/\r\n\r\n\r\n    //Multiple value return.\r\n    function without_parameters() public view returns (string memory str1, uint num1) {\r\n            return (str, number);\r\n    }\r\n\r\n    //Directly update the number by 'n'.\r\n    function update(uint _n) public {\r\n            number = _n;            \r\n    } \r\n\r\n    //Test transaction to check working with signature.\r\n    function update_string(string memory _str, bytes memory signature) public {\r\n        \r\n        bytes32 messageHash = keccak256(abi.encodePacked(_str, nonces[msg.sender]));\r\n        bool status = verify(signature, messageHash);\r\n        if(status == true)\r\n        {\r\n            if(keccak256(abi.encodePacked(str)) == keccak256(abi.encodePacked(\"yo\")))\r\n            revert(\"Yayy, error ocurred\");\r\n            str = _str;\r\n            nonces[msg.sender] = uint(keccak256(abi.encodePacked(block.difficulty, block.timestamp, block.number)))%10000;\r\n            emit test(\"Verification success - String updated\");\r\n        }\r\n        else\r\n            emit test(\"Verification failed - String not updated\");\r\n\r\n        emit test(str);\r\n    }       \r\n    \r\n    //Function to retrieve nonce.\r\n    function getNonce() public view returns(uint nonce) {\r\n        if(reg[msg.sender] == true)\r\n            return nonces[msg.sender];\r\n        else\r\n            return 0;\r\n    }\r\n\r\n    /// Check whether the message sender has been registered by the admin and send the nonce.\r\n    function register_gateway(bytes memory signature) public {\r\n        \r\n        if(reg[msg.sender] == true)\r\n            emit test(\"Already registered...\");\r\n        \r\n        bytes32 messageHash = keccak256(abi.encodePacked('Register'));\r\n        bool status = verify(signature, messageHash);\r\n        if(status == true)\r\n        {\r\n            //That means the signature has been verified.\r\n            reg[msg.sender] = true;\r\n            nonces[msg.sender] = uint(keccak256(abi.encodePacked(block.difficulty, block.timestamp, block.number)))%10000;\r\n        }        \r\n        else\r\n        {\r\n            revert(\"Authentication failed...\");\r\n        }\r\n    }\r\n\r\n\r\n\r\n    function verify(\r\n        bytes memory signature,\r\n        bytes32 messageHash        \r\n    ) public view returns (bool) {        \r\n        bytes32 ethSignedMessageHash = getEthSignedMessageHash(messageHash);\r\n\r\n        return recoverSigner(ethSignedMessageHash, signature) == msg.sender;\r\n    }\r\n\r\n    function getMessageHash(        \r\n        string memory _message ,\r\n        uint _nonce       \r\n    ) public pure returns (bytes32) {\r\n        return keccak256(abi.encodePacked(_message, _nonce));\r\n    }\r\n\r\n    function getEthSignedMessageHash(bytes32 _messageHash)\r\n        public\r\n        pure\r\n        returns (bytes32)\r\n    {\r\n        /*\r\n        Signature is produced by signing a keccak256 hash with the following format:\r\n        \"\\x19Ethereum Signed Message\\n\" + len(msg) + msg\r\n        */\r\n        return\r\n            keccak256(\r\n                abi.encodePacked(\"\\x19Ethereum Signed Message:\\n32\", _messageHash)\r\n            );\r\n    }\r\n\r\n    function recoverSigner(bytes32 _ethSignedMessageHash, bytes memory _signature)\r\n        public\r\n        pure\r\n        returns (address)\r\n    {\r\n        (bytes32 r, bytes32 s, uint8 v) = splitSignature(_signature);\r\n\r\n        return ecrecover(_ethSignedMessageHash, v, r, s);\r\n    }\r\n\r\n    function splitSignature(bytes memory sig)\r\n        public\r\n        pure\r\n        returns (\r\n            bytes32 r,\r\n            bytes32 s,\r\n            uint8 v\r\n        )\r\n    {\r\n        require(sig.length == 65, \"invalid signature length\");\r\n\r\n        assembly {\r\n            /*\r\n            First 32 bytes stores the length of the signature\r\n\r\n            add(sig, 32) = pointer of sig + 32\r\n            effectively, skips first 32 bytes of signature\r\n\r\n            mload(p) loads next 32 bytes starting at the memory address p into memory\r\n            */\r\n\r\n            // first 32 bytes, after the length prefix\r\n            r := mload(add(sig, 32))\r\n            // second 32 bytes\r\n            s := mload(add(sig, 64))\r\n            // final byte (first byte of the next 32 bytes)\r\n            v := byte(0, mload(add(sig, 96)))\r\n        }\r\n\r\n        // implicitly return (r, s, v)\r\n    }\r\n}",
  "sourcePath": "D:\\Semester 4-1\\Final year project\\fyp\\contracts\\Sample.sol",
  "compiler": {
    "name": "solc",
    "version": "0.8.10+commit.fc410830.Emscripten.clang"
  },
  "schemaVersion": "3.4.4",
  "updatedAt": "2022-01-25T09:51:04.082Z",
  "networkType": "ethereum",
  "devdoc": {
    "kind": "dev",
    "methods": {},
    "version": 1
  },
  "userdoc": {
    "kind": "user",
    "methods": {
      "number()": {
        "notice": "Blockchain state variables."
      },
      "register_gateway(bytes)": {
        "notice": "Check whether the message sender has been registered by the admin and send the nonce."
      }
    },
    "version": 1
  }
}