{
  "contractName": "Sample",
  "abi": [
    {
      "anonymous": false,
      "inputs": [
        {
          "indexed": false,
          "internalType": "uint256",
          "name": "_nonce",
          "type": "uint256"
        }
      ],
      "name": "getNonce",
      "type": "event"
    },
    {
      "anonymous": false,
      "inputs": [
        {
          "indexed": false,
          "internalType": "string",
          "name": "_str",
          "type": "string"
        }
      ],
      "name": "test",
      "type": "event"
    },
    {
      "inputs": [],
      "name": "number",
      "outputs": [
        {
          "internalType": "uint256",
          "name": "",
          "type": "uint256"
        }
      ],
      "stateMutability": "view",
      "type": "function",
      "constant": true
    },
    {
      "inputs": [],
      "name": "str",
      "outputs": [
        {
          "internalType": "string",
          "name": "",
          "type": "string"
        }
      ],
      "stateMutability": "view",
      "type": "function",
      "constant": true
    },
    {
      "inputs": [
        {
          "internalType": "string",
          "name": "_str",
          "type": "string"
        }
      ],
      "name": "update_string",
      "outputs": [],
      "stateMutability": "nonpayable",
      "type": "function"
    },
    {
      "inputs": [],
      "name": "without_parameters",
      "outputs": [
        {
          "internalType": "string",
          "name": "str1",
          "type": "string"
        },
        {
          "internalType": "uint256",
          "name": "num1",
          "type": "uint256"
        }
      ],
      "stateMutability": "view",
      "type": "function",
      "constant": true
    },
    {
      "inputs": [
        {
          "internalType": "uint256",
          "name": "_n",
          "type": "uint256"
        }
      ],
      "name": "update",
      "outputs": [
        {
          "internalType": "uint256",
          "name": "num1",
          "type": "uint256"
        },
        {
          "internalType": "string",
          "name": "str1",
          "type": "string"
        }
      ],
      "stateMutability": "nonpayable",
      "type": "function"
    },
    {
      "inputs": [],
      "name": "update",
      "outputs": [],
      "stateMutability": "nonpayable",
      "type": "function"
    },
    {
      "inputs": [],
      "name": "register_gateway",
      "outputs": [],
      "stateMutability": "nonpayable",
      "type": "function"
    },
    {
      "inputs": [
        {
          "internalType": "bytes",
          "name": "signature",
          "type": "bytes"
        }
      ],
      "name": "verify",
      "outputs": [
        {
          "internalType": "bool",
          "name": "",
          "type": "bool"
        }
      ],
      "stateMutability": "view",
      "type": "function",
      "constant": true
    },
    {
      "inputs": [
        {
          "internalType": "string",
          "name": "_message",
          "type": "string"
        },
        {
          "internalType": "uint256",
          "name": "_nonce",
          "type": "uint256"
        }
      ],
      "name": "getMessageHash",
      "outputs": [
        {
          "internalType": "bytes32",
          "name": "",
          "type": "bytes32"
        }
      ],
      "stateMutability": "pure",
      "type": "function",
      "constant": true
    },
    {
      "inputs": [
        {
          "internalType": "bytes32",
          "name": "_messageHash",
          "type": "bytes32"
        }
      ],
      "name": "getEthSignedMessageHash",
      "outputs": [
        {
          "internalType": "bytes32",
          "name": "",
          "type": "bytes32"
        }
      ],
      "stateMutability": "pure",
      "type": "function",
      "constant": true
    },
    {
      "inputs": [
        {
          "internalType": "bytes32",
          "name": "_ethSignedMessageHash",
          "type": "bytes32"
        },
        {
          "internalType": "bytes",
          "name": "_signature",
          "type": "bytes"
        }
      ],
      "name": "recoverSigner",
      "outputs": [
        {
          "internalType": "address",
          "name": "",
          "type": "address"
        }
      ],
      "stateMutability": "pure",
      "type": "function",
      "constant": true
    },
    {
      "inputs": [
        {
          "internalType": "bytes",
          "name": "sig",
          "type": "bytes"
        }
      ],
      "name": "splitSignature",
      "outputs": [
        {
          "internalType": "bytes32",
          "name": "r",
          "type": "bytes32"
        },
        {
          "internalType": "bytes32",
          "name": "s",
          "type": "bytes32"
        },
        {
          "internalType": "uint8",
          "name": "v",
          "type": "uint8"
        }
      ],
      "stateMutability": "pure",
      "type": "function",
      "constant": true
    }
  ],
  "bytecode": "0x60806040526040518060400160405280600581526020017f48656c6c6f000000000000000000000000000000000000000000000000000000815250600190805190602001906200005192919062000066565b503480156200005f57600080fd5b506200017b565b828054620000749062000145565b90600052602060002090601f016020900481019282620000985760008555620000e4565b82601f10620000b357805160ff1916838001178555620000e4565b82800160010185558215620000e4579182015b82811115620000e3578251825591602001919060010190620000c6565b5b509050620000f39190620000f7565b5090565b5b8082111562000112576000816000905550600101620000f8565b5090565b7f4e487b7100000000000000000000000000000000000000000000000000000000600052602260045260246000fd5b600060028204905060018216806200015e57607f821691505b6020821081141562000175576200017462000116565b5b50919050565b6114eb806200018b6000396000f3fe608060405234801561001057600080fd5b50600436106100b45760003560e01c8063a2e6204511610071578063a2e62045146101a3578063a7bb5803146101ad578063c15bae84146101df578063d4aa6916146101fd578063fa1189651461022d578063fa54080114610237576100b4565b8063166a0bb8146100b95780634ea36e32146100d557806382ab890a146100f45780638381f58a146101255780638e760afe1461014357806397aba7f914610173575b600080fd5b6100d360048036038101906100ce9190610a12565b610267565b005b6100dd610347565b6040516100eb929190610afc565b60405180910390f35b61010e60048036038101906101099190610b58565b6103e4565b60405161011c929190610b85565b60405180910390f35b61012d61049a565b60405161013a9190610bb5565b60405180910390f35b61015d60048036038101906101589190610c71565b6104a0565b60405161016a9190610cd5565b60405180910390f35b61018d60048036038101906101889190610d26565b610577565b60405161019a9190610dc3565b60405180910390f35b6101ab6105e6565b005b6101c760048036038101906101c29190610c71565b6105ff565b6040516101d693929190610e09565b60405180910390f35b6101e7610667565b6040516101f49190610e40565b60405180910390f35b61021760048036038101906102129190610e62565b6106f5565b6040516102249190610ebe565b60405180910390f35b610235610728565b005b610251600480360381019061024c9190610ed9565b6107e5565b60405161025e9190610ebe565b60405180910390f35b806001908051906020019061027d929190610815565b5060405160200161028d90610f5d565b6040516020818303038152906040528051906020012060016040516020016102b59190611067565b60405160208183030381529060405280519060200120141561030c576040517f08c379a0000000000000000000000000000000000000000000000000000000008152600401610303906110ca565b60405180910390fd5b7ff9fbd55454309325ccadd998a641a1dfe7cd888eea26c0ae93b95992a13ac144600160405161033c919061116a565b60405180910390a150565b60606000600160005481805461035c90610fa1565b80601f016020809104026020016040519081016040528092919081815260200182805461038890610fa1565b80156103d55780601f106103aa576101008083540402835291602001916103d5565b820191906000526020600020905b8154815290600101906020018083116103b857829003601f168201915b50505050509150915091509091565b60006060826000808282546103f991906111bb565b92505081905550600054600180805461041190610fa1565b80601f016020809104026020016040519081016040528092919081815260200182805461043d90610fa1565b801561048a5780601f1061045f5761010080835404028352916020019161048a565b820191906000526020600020905b81548152906001019060200180831161046d57829003601f168201915b5050505050905091509150915091565b60005481565b600080600360003373ffffffffffffffffffffffffffffffffffffffff1673ffffffffffffffffffffffffffffffffffffffff16815260200190815260200160002054905060006105266040518060400160405280600f81526020017f4d657373616765207369676e696e670000000000000000000000000000000000815250836106f5565b90506000610533826107e5565b90503373ffffffffffffffffffffffffffffffffffffffff166105568287610577565b73ffffffffffffffffffffffffffffffffffffffff16149350505050919050565b600080600080610586856105ff565b925092509250600186828585604051600081526020016040526040516105af9493929190611211565b6020604051602081039080840390855afa1580156105d1573d6000803e3d6000fd5b50505060206040510351935050505092915050565b6000808154809291906105f890611256565b9190505550565b60008060006041845114610648576040517f08c379a000000000000000000000000000000000000000000000000000000000815260040161063f906112eb565b60405180910390fd5b6020840151925060408401519150606084015160001a90509193909250565b6001805461067490610fa1565b80601f01602080910402602001604051908101604052809291908181526020018280546106a090610fa1565b80156106ed5780601f106106c2576101008083540402835291602001916106ed565b820191906000526020600020905b8154815290600101906020018083116106d057829003601f168201915b505050505081565b6000828260405160200161070a92919061135d565b60405160208183030381529060405280519060200120905092915050565b600061271044424360405160200161074293929190611385565b6040516020818303038152906040528051906020012060001c61076591906113f1565b905080600360003373ffffffffffffffffffffffffffffffffffffffff1673ffffffffffffffffffffffffffffffffffffffff168152602001908152602001600020819055507f3d46b8197af773aaa9a2bc9b90b59a762c766246c54fb75db474ec96f8390c10816040516107da9190610bb5565b60405180910390a150565b6000816040516020016107f8919061148f565b604051602081830303815290604052805190602001209050919050565b82805461082190610fa1565b90600052602060002090601f016020900481019282610843576000855561088a565b82601f1061085c57805160ff191683800117855561088a565b8280016001018555821561088a579182015b8281111561088957825182559160200191906001019061086e565b5b509050610897919061089b565b5090565b5b808211156108b457600081600090555060010161089c565b5090565b6000604051905090565b600080fd5b600080fd5b600080fd5b600080fd5b6000601f19601f8301169050919050565b7f4e487b7100000000000000000000000000000000000000000000000000000000600052604160045260246000fd5b61091f826108d6565b810181811067ffffffffffffffff8211171561093e5761093d6108e7565b5b80604052505050565b60006109516108b8565b905061095d8282610916565b919050565b600067ffffffffffffffff82111561097d5761097c6108e7565b5b610986826108d6565b9050602081019050919050565b82818337600083830152505050565b60006109b56109b084610962565b610947565b9050828152602081018484840111156109d1576109d06108d1565b5b6109dc848285610993565b509392505050565b600082601f8301126109f9576109f86108cc565b5b8135610a098482602086016109a2565b91505092915050565b600060208284031215610a2857610a276108c2565b5b600082013567ffffffffffffffff811115610a4657610a456108c7565b5b610a52848285016109e4565b91505092915050565b600081519050919050565b600082825260208201905092915050565b60005b83811015610a95578082015181840152602081019050610a7a565b83811115610aa4576000848401525b50505050565b6000610ab582610a5b565b610abf8185610a66565b9350610acf818560208601610a77565b610ad8816108d6565b840191505092915050565b6000819050919050565b610af681610ae3565b82525050565b60006040820190508181036000830152610b168185610aaa565b9050610b256020830184610aed565b9392505050565b610b3581610ae3565b8114610b4057600080fd5b50565b600081359050610b5281610b2c565b92915050565b600060208284031215610b6e57610b6d6108c2565b5b6000610b7c84828501610b43565b91505092915050565b6000604082019050610b9a6000830185610aed565b8181036020830152610bac8184610aaa565b90509392505050565b6000602082019050610bca6000830184610aed565b92915050565b600067ffffffffffffffff821115610beb57610bea6108e7565b5b610bf4826108d6565b9050602081019050919050565b6000610c14610c0f84610bd0565b610947565b905082815260208101848484011115610c3057610c2f6108d1565b5b610c3b848285610993565b509392505050565b600082601f830112610c5857610c576108cc565b5b8135610c68848260208601610c01565b91505092915050565b600060208284031215610c8757610c866108c2565b5b600082013567ffffffffffffffff811115610ca557610ca46108c7565b5b610cb184828501610c43565b91505092915050565b60008115159050919050565b610ccf81610cba565b82525050565b6000602082019050610cea6000830184610cc6565b92915050565b6000819050919050565b610d0381610cf0565b8114610d0e57600080fd5b50565b600081359050610d2081610cfa565b92915050565b60008060408385031215610d3d57610d3c6108c2565b5b6000610d4b85828601610d11565b925050602083013567ffffffffffffffff811115610d6c57610d6b6108c7565b5b610d7885828601610c43565b9150509250929050565b600073ffffffffffffffffffffffffffffffffffffffff82169050919050565b6000610dad82610d82565b9050919050565b610dbd81610da2565b82525050565b6000602082019050610dd86000830184610db4565b92915050565b610de781610cf0565b82525050565b600060ff82169050919050565b610e0381610ded565b82525050565b6000606082019050610e1e6000830186610dde565b610e2b6020830185610dde565b610e386040830184610dfa565b949350505050565b60006020820190508181036000830152610e5a8184610aaa565b905092915050565b60008060408385031215610e7957610e786108c2565b5b600083013567ffffffffffffffff811115610e9757610e966108c7565b5b610ea3858286016109e4565b9250506020610eb485828601610b43565b9150509250929050565b6000602082019050610ed36000830184610dde565b92915050565b600060208284031215610eef57610eee6108c2565b5b6000610efd84828501610d11565b91505092915050565b600081905092915050565b7f796f000000000000000000000000000000000000000000000000000000000000600082015250565b6000610f47600283610f06565b9150610f5282610f11565b600282019050919050565b6000610f6882610f3a565b9150819050919050565b7f4e487b7100000000000000000000000000000000000000000000000000000000600052602260045260246000fd5b60006002820490506001821680610fb957607f821691505b60208210811415610fcd57610fcc610f72565b5b50919050565b60008190508160005260206000209050919050565b60008154610ff581610fa1565b610fff8186610f06565b9450600182166000811461101a576001811461102b5761105e565b60ff1983168652818601935061105e565b61103485610fd3565b60005b8381101561105657815481890152600182019150602081019050611037565b838801955050505b50505092915050565b60006110738284610fe8565b915081905092915050565b7f596179792c206572726f72206f63757272656400000000000000000000000000600082015250565b60006110b4601383610a66565b91506110bf8261107e565b602082019050919050565b600060208201905081810360008301526110e3816110a7565b9050919050565b600081546110f781610fa1565b6111018186610a66565b9450600182166000811461111c576001811461112e57611161565b60ff1983168652602086019350611161565b61113785610fd3565b60005b838110156111595781548189015260018201915060208101905061113a565b808801955050505b50505092915050565b6000602082019050818103600083015261118481846110ea565b905092915050565b7f4e487b7100000000000000000000000000000000000000000000000000000000600052601160045260246000fd5b60006111c682610ae3565b91506111d183610ae3565b9250827fffffffffffffffffffffffffffffffffffffffffffffffffffffffffffffffff038211156112065761120561118c565b5b828201905092915050565b60006080820190506112266000830187610dde565b6112336020830186610dfa565b6112406040830185610dde565b61124d6060830184610dde565b95945050505050565b600061126182610ae3565b91507fffffffffffffffffffffffffffffffffffffffffffffffffffffffffffffffff8214156112945761129361118c565b5b600182019050919050565b7f696e76616c6964207369676e6174757265206c656e6774680000000000000000600082015250565b60006112d5601883610a66565b91506112e08261129f565b602082019050919050565b60006020820190508181036000830152611304816112c8565b9050919050565b600061131682610a5b565b6113208185610f06565b9350611330818560208601610a77565b80840191505092915050565b6000819050919050565b61135761135282610ae3565b61133c565b82525050565b6000611369828561130b565b91506113758284611346565b6020820191508190509392505050565b60006113918286611346565b6020820191506113a18285611346565b6020820191506113b18284611346565b602082019150819050949350505050565b7f4e487b7100000000000000000000000000000000000000000000000000000000600052601260045260246000fd5b60006113fc82610ae3565b915061140783610ae3565b925082611417576114166113c2565b5b828206905092915050565b7f19457468657265756d205369676e6564204d6573736167653a0a333200000000600082015250565b6000611458601c83610f06565b915061146382611422565b601c82019050919050565b6000819050919050565b61148961148482610cf0565b61146e565b82525050565b600061149a8261144b565b91506114a68284611478565b6020820191508190509291505056fea2646970667358221220e888b247ec96e2a7b424f7daf1b9dcffe3be9620ee1bc15d0590af9241c88ab164736f6c634300080a0033",
  "immutableReferences": {},
  "source": "// SPDX-License-Identifier: MIT\r\npragma solidity ^0.8.10;\r\n\r\ncontract Sample {\r\n    ///Blockchain state variables.\r\n    uint public number;\r\n    string public str = \"Hello\";\r\n    mapping(address => bool) reg;\r\n    mapping(address => uint) nonces;\r\n    \r\n    event test(string _str);\r\n    event getNonce(uint _nonce);\r\n    \r\n\r\n    function update() public {\r\n        number ++;\r\n    }\r\n\r\n    function update_string(string memory _str) public {\r\n        str = _str;\r\n        if(keccak256(abi.encodePacked(str)) == keccak256(abi.encodePacked(\"yo\")))\r\n            revert(\"Yayy, error ocurred\");\r\n        emit test(str);\r\n    }\r\n\r\n    function without_parameters() public view returns (string memory str1, uint num1) {\r\n            return (str, number);\r\n    }\r\n\r\n    function update(uint _n) public returns (uint num1, string memory str1) {\r\n            number += _n;\r\n            return (number, str);\r\n    }    \r\n    \r\n    /// Check whether the message sender has been registered by the admin and send the nonce.\r\n    function register_gateway() public {\r\n        \r\n        // if(reg[msg.sender] != true)\r\n        //     revert(\"Not registered by the admin...\");\r\n        uint non = uint(keccak256(abi.encodePacked(block.difficulty, block.timestamp, block.number)))%10000;\r\n        nonces[msg.sender] = non;\r\n        emit getNonce(non);\r\n    }\r\n\r\n\r\n\r\n    function verify(\r\n        bytes memory signature\r\n    ) public view returns (bool) {\r\n        uint nonce = nonces[msg.sender];\r\n        bytes32 messageHash = getMessageHash('Message signing', nonce);\r\n        bytes32 ethSignedMessageHash = getEthSignedMessageHash(messageHash);\r\n\r\n        return recoverSigner(ethSignedMessageHash, signature) == msg.sender;\r\n    }\r\n\r\n    function getMessageHash(        \r\n        string memory _message ,\r\n        uint _nonce       \r\n    ) public pure returns (bytes32) {\r\n        return keccak256(abi.encodePacked(_message, _nonce));\r\n    }\r\n\r\n    function getEthSignedMessageHash(bytes32 _messageHash)\r\n        public\r\n        pure\r\n        returns (bytes32)\r\n    {\r\n        /*\r\n        Signature is produced by signing a keccak256 hash with the following format:\r\n        \"\\x19Ethereum Signed Message\\n\" + len(msg) + msg\r\n        */\r\n        return\r\n            keccak256(\r\n                abi.encodePacked(\"\\x19Ethereum Signed Message:\\n32\", _messageHash)\r\n            );\r\n    }\r\n\r\n    function recoverSigner(bytes32 _ethSignedMessageHash, bytes memory _signature)\r\n        public\r\n        pure\r\n        returns (address)\r\n    {\r\n        (bytes32 r, bytes32 s, uint8 v) = splitSignature(_signature);\r\n\r\n        return ecrecover(_ethSignedMessageHash, v, r, s);\r\n    }\r\n\r\n    function splitSignature(bytes memory sig)\r\n        public\r\n        pure\r\n        returns (\r\n            bytes32 r,\r\n            bytes32 s,\r\n            uint8 v\r\n        )\r\n    {\r\n        require(sig.length == 65, \"invalid signature length\");\r\n\r\n        assembly {\r\n            /*\r\n            First 32 bytes stores the length of the signature\r\n\r\n            add(sig, 32) = pointer of sig + 32\r\n            effectively, skips first 32 bytes of signature\r\n\r\n            mload(p) loads next 32 bytes starting at the memory address p into memory\r\n            */\r\n\r\n            // first 32 bytes, after the length prefix\r\n            r := mload(add(sig, 32))\r\n            // second 32 bytes\r\n            s := mload(add(sig, 64))\r\n            // final byte (first byte of the next 32 bytes)\r\n            v := byte(0, mload(add(sig, 96)))\r\n        }\r\n\r\n        // implicitly return (r, s, v)\r\n    }\r\n}",
  "sourcePath": "D:\\Semester 4-1\\Final year project\\fyp\\contracts\\Sample.sol",
  "compiler": {
    "name": "solc",
    "version": "0.8.10+commit.fc410830.Emscripten.clang"
  },
  "schemaVersion": "3.4.4",
  "updatedAt": "2022-01-13T10:12:17.669Z",
  "networkType": "ethereum",
  "devdoc": {
    "kind": "dev",
    "methods": {},
    "version": 1
  },
  "userdoc": {
    "kind": "user",
    "methods": {
      "number()": {
        "notice": "Blockchain state variables."
      },
      "register_gateway()": {
        "notice": "Check whether the message sender has been registered by the admin and send the nonce."
      }
    },
    "version": 1
  }
}